:1000000000000420711A0000E11A0000E31A000049
:10001000E51A0000E71A0000E91A0000EB1A0000D8
:10002000000000000000000000000000ED1A0000C9
:10003000EF1A000000000000F11A0000F31A00009F
:10004000F51A0000F51A000000000000F51A000083
:1000500000000000F51A0000000000000000000091
:10006000FD180000F51A0000F51A0000F51A00004E
:10007000F51A0000F51A0000F51A0000F51A000044
:10008000F51A0000F51A0000000000000000000052
:10009000912B0000F51A0000000000000000000095
:1000A000F51A0000F51A0000F51A0000F51A000014
:1000B000F51A0000F51A0000F51A0000F51A000004
:1000C000F51A0000F51A0000F51A0000F51A0000F4
:1000D000F51A000000000000F51A00000000000002
:1000E000F51A000000000000F51A0000F51A0000E3
:1000F00000000000F51A000000000000F51A0000E2
:10010000000000000000000000000000F51A0000E0
:10011000F51A000000000000F51A0000F51A0000B2
:1001200000000000F51A00000000000000000000C0
:1001300000000000000000000000000000000000BF
:1001400000000000000000000000000000000000AF
:10015000F51A000000000000000000000000000090
:10016000000000000000000000000000000000008F
:10017000000000000000000000000000000000007F
:10018000000000000000000000000000000000006F
:10019000000000000000000000000000000000005F
:100400000A0D000077656C636F6D6520746F205472
:1004100048452047616D6500636F6E677261747354
:100420002C20596F752057494E0000006E65787476
:10043000206C6576656C2100656E746572203120D4
:10044000746F20636F6E74696E756500656E746598
:1004500072203120746F2073746172742074686527
:100460002047616D65000000507265737320302075
:10047000746F207265737461727400001B630000F6
:10048000256400000000074100000000596F7572EC
:100490002054696D65206861732072756E206F75D8
:1004A000742C2047616D65204F7665720000000056
:1004B00057726F6E6720416E737765722C204761AB
:1004C0006D65204F766572002C2066756E637469C9
:1004D0006F6E3A2000617373657274696F6E2022CB
:1004E000257322206661696C65643A2066696C65D3
:1004F00020222573222C206C696E652025642573CB
:1005000025730A005245454E54206D616C6C6F6333
:1005100020737563636565646564002F646174614D
:100520002F6A656E6B696E732F776F726B73706174
:1005300063652F474E552D746F6F6C636861696EEC
:100540002F61726D2D31332F7372632F6E65776C4F
:1005500069622D63796777696E2F6E65776C696262
:100560002F6C6962632F7374646C69622F72616EA1
:10057000642E6300232D302B2000686C4C006566D0
:1005800067454647003031323334353637383941E4
:1005900042434445460030313233343536373839FA
:1005A00061626364656600002020202020202020F6
:1005B0002028282828282020202020202020202013
:1005C0002020202020202020881010101010101033
:1005D000101010101010101004040404040404047B
:1005E000040410101010101010414141414141010C
:1005F00001010101010101010101010101010101EB
:1006000001010110101010101042424242424202F9
:1006100002020202020202020202020202020202BA
:100620000202021010101020000000000000000064
:1006300000000000000000000000000000000000BA
:1006400000000000000000000000000000000000AA
:10065000000000000000000000000000000000009A
:10066000000000000000000000000000000000008A
:10067000000000000000000000000000000000007A
:10068000000000000000000000000000000000006A
:10069000000000000000000000000000000000005A
:0806A000000000000000000052
:0806A8009800000001000000B1
:1006B0000348044B834202D0034B03B118477047F1
:1006C000700000207000002000000000064B074969
:1006D000C91A891048BF0131491003D0044B0BB12E
:1006E00001481847704700BF7000002070000020CC
:1006F0000000000010B5064C237843B9FFF7D8FF7F
:10070000044B13B10448AFF300800123237010BDE4
:100710007000002000000000B04C000008B5054B40
:100720001BB105490548AFF30080BDE80840FFF75D
:10073000CDBF00BF0000000074000020B04C0000DE
:10074000A3F5803A704700BF174B002B08BF134B2F
:100750009D46FFF7F5FF00218B460F461348144ACC
:10076000121A02F0D4FE0E4B002B00D098470D4B0E
:10077000002B00D098470020002104000D000D48F8
:10078000002802D00C48AFF3008002F025FF2000C3
:10079000290001F03DFD02F0CBFB00BF0000080086
:1007A0000000000000000000000004207000002095
:1007B0007C020020000000000000000080B483B034
:1007C00000AF78607B681B6800BF0C37BD465DF8E2
:1007D000047B704780B400AF00BFBD465DF8047B6A
:1007E000704780B400AF00BFBD465DF8047B704722
:1007F00080B400AF00BFBD465DF8047B704780B495
:1008000083B000AF786039603B6803F06043B3F1B8
:10081000005F0CBF01230023DBB218460C37BD4636
:100820005DF8047B704780B582B000AF78600B46FE
:100830007B807B887A68134400221A607B887A6800
:1008400013441846FFF7BAFF00BF0837BD4680BD06
:1008500080B483B000AF78600B467B807B887A6879
:1008600013441B68002B14BF01230023DBB218467E
:100870000C37BD465DF8047B704780B483B000AF91
:10088000786039607B68D3F800223B681A437B6844
:10089000C3F8002200BF0C37BD465DF8047B7047EB
:1008A00080B483B000AF786039607B68D3F80022F1
:1008B0003B68DB431A407B68C3F8002200BF0C375B
:1008C000BD465DF8047B704780B483B000AF7860AC
:1008D00039607B683A68C3F8042300BF0C37BD4613
:1008E0005DF8047B704780B483B000AF78603960F6
:1008F0007B683A68C3F8082300BF0C37BD465DF833
:10090000047B704780B485B000AF78607B68D3F813
:100910008034FB607B68FA68C3F88024FB68184663
:100920001437BD465DF8047B704780B483B000AFD8
:1009300078607B680822C3F8002500BF0C37BD46ED
:100940005DF8047B704780B483B000AF78607B684B
:100950000022C3F8002500BF0C37BD465DF8047BBC
:10096000704780B485B000AFF860B9607A60FB680A
:10097000BA68C3F80C25FB687A68C3F8142500BF71
:100980001437BD465DF8047B704780B485B000AF76
:10099000F860B9607A60FB68BA68C3F80825FB683C
:1009A0007A68C3F8102500BF1437BD465DF8047B94
:1009B000704780B483B000AF78600B46FB70FB7863
:1009C0007A68134401221A6000BF0C37BD465DF8F7
:1009D000047B704780B483B000AF786039603B68B7
:1009E0005A783B689B781343DBB21A463B689B8876
:1009F00013433A6812781A437B68C3F86C2500BF2A
:100A00000C37BD465DF8047B704780B483B000AFFF
:100A1000786039607B683A68C3F8242500BF0C37DA
:100A2000BD465DF8047B704780B485B000AFF860C8
:100A3000B9607A60BA68FB68C3F84425FB687A68D5
:100A4000C3F8482500BF1437BD465DF8047B7047E6
:100A500080B483B000AF78607B68D3F84C3518461B
:100A60000C37BD465DF8047B704780B485B000AF9D
:100A7000F860B9607A60BA68FB68C3F83425FB682F
:100A80007A68C3F8382500BF1437BD465DF8047B8B
:100A9000704780B483B000AF78607B68D3F83C3592
:100AA00018460C37BD465DF8047B704780B582B0B0
:100AB00000AF786039603B681B6919467868FFF7BA
:100AC000A4FF3B68143319467868FFF783FF3B683F
:100AD0009B7E83F00103DBB2002B07D03B681968D3
:100AE0003B685B681A467868FFF73BFF3B681B7DF5
:100AF000012B0ED13B689B7E83F00103DBB2002B00
:100B000007D03B6899683B68DB681A467868FFF74E
:100B10003CFFFFF75FFE00BF0837BD4680BD80B5D4
:100B200084B000AFF860B96011461A460B46FB71FD
:100B30001346BB714FF48072B968F86800F0A8F9E9
:100B40004FF48272B968F86800F0A2F94FF4847229
:100B5000B968F86800F09CF94FF48872B968F868D1
:100B600000F096F94FF48E72B968F86800F090F9C9
:100B70004FF49072B968F86800F08AF94FF49272F5
:100B8000B968F86800F084F94FF4A272B968F8689F
:100B900000F07EF94FF4A672B968F86800F078F9B1
:100BA0004FF4A872B968F86800F072F94FF4AC72AB
:100BB000B968F86800F06CF9FFF70CFEBB79002B00
:100BC00003D0B968F868FFF77FFEFFF703FE00BFA8
:100BD0001037BD4680BD80B586B000AFF860B96003
:100BE0007A607A68B968F86800F0A5F97861FFF76B
:100BF000F1FD7B6918461837BD4680BD80B582B0CF
:100C000000AF786039600C217868FFF7D2FEFFF7FB
:100C1000E1FD00BF00224FF48001786800F08BF9FD
:100C20000346002BF6D03B68002B13D03B685B6873
:100C3000002B0FD004217868FFF7BBFEFFF7CAFD39
:100C400000BF3A684FF40031786800F074F9034649
:100C5000002BF6D000BF0837BD4680BD80B584B0FC
:100C600000AF78600B46FB700023FB6008217868BA
:100C7000FFF79FFEFB78002B0CD00A4BBB60FFF701
:100C8000A9FD0022B9687868FFF7A5FFF860FB6846
:100C9000002BF6D0FFF79EFDFB6818461037BD46C7
:100CA00080BD00BF0001400080B584B000AF786017
:100CB00039600023FB6000217868FFF77AFE3B680B
:100CC000002B0CD0094BBB60FFF784FD3A68B96874
:100CD0007868FFF780FFF860FB68002BF6D0FFF71D
:100CE00079FDFB6818461037BD4680BD1002020032
:100CF00080B582B000AF78600B467B807B88194658
:100D00007868FFF790FDFFF765FD00BF0837BD4627
:100D100080BD80B582B000AF78603960396878688E
:100D2000FFF7ABFDFFF756FD00BF0837BD4680BD9E
:100D300080B582B000AF7860396039687868FFF7B5
:100D4000AFFDFFF747FD00BF0837BD4680BD80B54A
:100D500082B000AF7860396039687868FFF7B4FD19
:100D6000FFF738FD00BF0837BD4680BD80B582B0B3
:100D700000AF7860396039687868FFF7B4FDFFF735
:100D800029FD00BF0837BD4680BD80B584B000AFE7
:100D90007860FFF72DFD7868FFF7B4FDF860FFF786
:100DA00027FDFB6818461037BD4680BD80B582B070
:100DB00000AF78607868FFF7B8FDFFF70BFD00BF64
:100DC0000837BD4680BD80B582B000AF78607868D6
:100DD000FFF7B9FDFFF7FEFC00BF0837BD4680BD39
:100DE00080B582B000AF78600B46FB70FB78194687
:100DF0007868FFF7DEFDFFF7EDFC00BF0837BD4662
:100E000080BD80B584B000AFF860B9607A60BB681F
:100E1000002B06D07A68B968F868FFF705FEFFF77F
:100E2000D9FC00BF1037BD4680BD80B584B000AF8F
:100E30007860FFF7D6FC7868FFF70AFEF860FFF7E6
:100E4000D0FCFB6818461037BD4680BD80B584B025
:100E500000AFF860B9607A607A68B968F868FFF73F
:100E600004FEFFF7B7FC00BF1037BD4680BD80B55C
:100E700084B000AF7860FFF7B4FC7868FFF709FE34
:100E8000F860FFF7AEFCFB6818461037BD4680BD22
:100E900080B584B000AFF860B9601346FB80FB8872
:100EA000A3F580739B08012202FA03F31A46BB687C
:100EB0001340002B04D0FB881946F868FFF7B3FCF9
:100EC00000BF1037BD4680BD80B584B000AFF8606C
:100ED000B9603B601346FB80FB88A3F580739B08D9
:100EE000012202FA03F31A46BB681340002B1DD0FF
:100EF000FB881946F868FFF7ABFC0346002B15D0BA
:100F0000FB881946F868FFF78EFC3B68002B0BD076
:100F10003B681B68FA88A2F580729208012101FAE9
:100F200002F21A433B681A60012300E000231846CE
:100F30001037BD4680BD80B586B000AFF860B9609F
:100F40007A6000233B61FFF74CFC07F110034FF47C
:100F50008072B968F868FFF7B7FF07F110034FF424
:100F60008272B968F868FFF7AFFF07F110034FF41A
:100F70008472B968F868FFF7A7FF07F110034FF410
:100F80008872B968F868FFF79FFF07F110034FF404
:100F90008E72B968F868FFF797FF07F110034FF4F6
:100FA0009072B968F868FFF78FFF07F110034FF4EC
:100FB0009272B968F868FFF787FF07F110034FF4E2
:100FC000A272B968F868FFF77FFF07F110034FF4CA
:100FD000A672B968F868FFF777FF07F110034FF4BE
:100FE000A872B968F868FFF76FFF07F110034FF4B4
:100FF000AC72B968F868FFF767FFBB6803F01003CD
:10100000002B0AD1BB6803F40033002B05D0F8682D
:10101000FFF73FFD7861FFF7EBFBFFF7DBFB3B6979
:1010200018461837BD4680BD80B584B000AF7860E3
:101030000023FB60786800F09CF80346002B02D088
:10104000012B03D004E0054BFB6001E0044BFB6087
:10105000FB6818461037BD4680BD00BF0025845090
:101060000028845080B586B000AF786008461146ED
:101070001A460346FB700B46BB7013467B703B1D44
:101080001846FFF7D1FF78617A687B69803253F8A0
:1010900022303B61114BFB60FB68DB433A69134034
:1010A0003B61FA78BB785B001A437B789B001A435C
:1010B00097F820301B021A4397F824301B0413437F
:1010C0003A6913433B617A687B698032396943F836
:1010D000221000BF1837BD4680BD00BF0F0F0300B0
:1010E00080B584B002AF78600023019300230093A1
:1010F0000023012201217868FFF7B4FF00BF083701
:10110000BD4680BD80B584B002AF78600B46FB70F1
:10111000FB780022019200220092002200217868D0
:10112000FFF7A0FF00BF0837BD4680BD80B584B083
:1011300000AF78603B1D1846FFF776FFF8607B68CC
:10114000012202FA03F31946F86800F004F800BF20
:101150001037BD4680BD80B483B000AF7860396081
:101160007B683A689A6000BF0C37BD465DF8047B27
:10117000704780B485B000AF78607B681B68FB6007
:10118000FB6803F01F027B681A60FB685B09184666
:101190001437BD465DF8047B704780B582B000AF60
:1011A00078607868FFF79CFFFFF714FB00BF0837F3
:1011B000BD4680BD80B582B000AF78600B46FB7045
:1011C000FB7819467868FFF79DFFFFF703FB00BF28
:1011D0000837BD4680BD80B582B000AF78607868C2
:1011E000FFF7A4FFFFF7F6FA00BF0837BD4680BD42
:1011F00080B58AB000AF786039603B6893F82030E2
:1012000083F00103DBB2002B19D03B681B68B3F1FC
:10121000FF3F09D03B681B681846FFF7DCFF3B68BF
:101220001B681846FFF7B9FF3B685B68B3F1FF3FE7
:1012300005D03B685B6800211846FFF7BBFF3B68A1
:101240009B7E012B21D13B6893F8203083F0010372
:10125000DBB2002B19D03B68DB68B3F1FF3F05D050
:101260003B68DB6800211846FFF7A4FF3B689B68DA
:10127000B3F1FF3F09D03B689B681846FFF7ABFF0F
:101280003B689B681846FFF788FF07F10C030022B4
:101290001A605A609A60DA601A615A619A613B6812
:1012A0001B68FB603B685B683B613B689B687B61DC
:1012B0003B68DB68BB613B685B69FB613B6893F83B
:1012C000213087F826303A6807F120031A32106877
:1012D000186092889A807B681B6807F10C0211469F
:1012E0001846FFF7E3FB786800F01EF87B681B796F
:1012F00019460B4A0B46DB000B449B001344043396
:101300001B68002B07D07B6818683B681A7E012396
:101310000449FFF704FC00BF2837BD4680BD00BF6D
:101320008C0000201003420080B586B000AF7860CA
:101330007B681B6803F26453FB607B681B6803F5E2
:10134000AD63BB60BB681B68012B05D17B681B6864
:101350000C211846FFF744FDFB681B68012B26D1C2
:101360007B681B681846FFF721FD7B681B6804211A
:101370001846FFF735FD0023FB7549F640433B61F6
:10138000FB681B68002B02D10123FB7505E03B695C
:10139000013B3B613B69002BF2D17B681B6818461F
:1013A000FFF7F3FC7B681B681846FFF70CFD00BFD6
:1013B0001837BD4680BD000080B586B000AFF8602C
:1013C000B9607A60FB681B791A461346DB00134448
:1013D0009B00234A13447B61224B3B617B6993F85A
:1013E0002030002B03D0204B3B613B6934E07B690C
:1013F0007A685A60BB68002B1BD0BB681A697B698E
:101400001A60BB6893F820107A6992F8223061F371
:10141000000382F82230BB6893F821107A6992F8B1
:10142000223061F3410382F82230B968F868FFF78F
:10143000DFFEFB681B681846FFF7B8FC7B690022DB
:101440009A617B690022DA617B6900225A617B69BB
:10145000012283F820203B6918461837BD4680BD1D
:101460008C0000200000AD0B0500AD0B80B588B0EE
:1014700000AFF860B9607A603B60FB681B791A4680
:101480001346DB0013449B00314A1344BB61314BCC
:10149000FB61FB681B68B9681846FFF7B0F90346A3
:1014A00083F00103DBB2002B03D02B4BFB61FB6904
:1014B0004AE0F86800F056F80346002B03D0274BAB
:1014C000FB61FB6940E0BB697A685A61BB69BA6835
:1014D0009A60FB681B684FF490711846FFF708FC90
:1014E000FB681B684FF4AC711846FFF701FCFB6802
:1014F0001868BB699968BB695B691A46FFF781FC8C
:10150000FB681A68BB695B68002B0CBF01230023D2
:10151000DBB219461046FFF7A1FB7861BB695B6837
:10152000002B10D17B6903F48003002B02D00C4BFD
:10153000FB6105E0FB681B6800211846FFF75EFBB6
:10154000BB6900225A61FB6918462037BD4680BD41
:101550008C0000200000AD0B0A00AD0B0B00AD0BA2
:101560000800AD0B80B483B000AF78607B681B7956
:101570001946094A0B46DB000B449B001344143305
:101580001B68002B14BF01230023DBB218460C3765
:10159000BD465DF8047B70478C00002080B58AB0A2
:1015A00000AFF860B9607A60FB681B791A46134691
:1015B000DB0013449B00584A1344BB61574B7B62CA
:1015C000FB681B68B9681846FFF719F9034683F0F2
:1015D0000103DBB2002B03D0514B7B627B6A97E0A7
:1015E000002387F82330BB695B68002B06D0FB68BB
:1015F0001B684FF404711846FFF7B8FBBB699B6981
:10160000002B15D0BB69DB69002B0ED0BB695B6872
:10161000002B06D0FB681B684FF404711846FFF7D7
:1016200096FB404B7B627B6A72E0012387F8233094
:1016300097F8233083F00103DBB2002B09D0BB699C
:101640007A689A61BB69BA68DA60BB690022DA61BC
:1016500005E0BB69BA681A61BB697A68DA61FB6840
:101660001B684FF488711846FFF742FBFB681B6844
:101670004FF4A2711846FFF73BFBFB681B687A68C2
:10168000B9681846FFF7E2FB0023FB6197F82330A7
:10169000002B06D0FB681B6820211846FFF739FB9A
:1016A00014E0BB69DB683B61BB699B697B61FB68DC
:1016B0001A68BB695B68002B02D107F1100300E0D8
:1016C000002319461046FFF7EFFAF861BB695B6823
:1016D000002B11D1BB6900229A61FB6903F40073EE
:1016E000002B01D0104B7B62FB6903F40033002B0D
:1016F0000DD00E4B7B620AE0BB69002283F82120EB
:10170000FB681B684FF404711846FFF720FB7B6AE7
:1017100018462837BD4680BD8C0000200000AD0B68
:101720000A00AD0B0B00AD0B0100AD0B0800AD0BBB
:1017300080B588B000AFF860B9607A6001233B746F
:10174000BB68BB617B687B61FB685B68FA6811689A
:1017500007F110021046984700BF2037BD4680BDF4
:1017600080B586B000AF7860396000233B723B687B
:101770003B617B689B68FB607B6800225A617B68E9
:101780005B687A68116807F108021046984700BF45
:101790001837BD4680BD000080B58CB000AF7860C2
:1017A00039603B68DB68FB613B689B693B6207F122
:1017B0001C031A4650497868FFF70DFAF862FB6A75
:1017C00003F40073002B1DD002233B737868FFF7EE
:1017D000DCFA0346BB617868FFF749FB03467B618F
:1017E0003B68DB683B613B6800229A613B680022F2
:1017F000DA613B685B683A68116807F10C021046D1
:10180000984735E0FB6A03F01003002B30D03B68AB
:1018100093F8213083F00103DBB2002B28D03B6822
:101820009B69BB623B68DB69002B17D03B68DB68B8
:101830007B6220217868FFF77BFA3B68DA693B68B6
:101840009A613B681A693B68DA603B680022DA619A
:101850007A6AB96A3868FFF76BFF09E03B680022D3
:101860009A613B68DB681A46B96A3868FFF760FF1F
:10187000FB6A03F40033002B13D03B689B69002BF9
:101880000FD03B6800229A613B680022DA617868D9
:10189000FFF7EDFA01463B68DB681A463868FFF748
:1018A00047FFFB6A03F48073002B0FD00C2178688C
:1018B000FFF796FA3B685B69002B07D07868FFF763
:1018C000B4FA034619463868FFF74AFFFB6A03F487
:1018D0008003002B0BD03B685B69002B07D0786836
:1018E000FFF7A3FA034619463868FFF739FF00BF30
:1018F0003037BD4680BD00BF1003420080B500AF49
:1019000002490348FFF748FF80BD00BF8C0000205C
:101910000080005080B483B000AF7860044A7B68D8
:10192000136000BF0C37BD465DF8047B704700BFF5
:1019300010E000E080B483B000AF7860044A7B68B8
:10194000536000BF0C37BD465DF8047B704700BF95
:1019500010E000E080B400AF034B9B681846BD4622
:101960005DF8047B704700BF10E000E080B483B0F6
:1019700000AF7860074B1B68074AA2FB03239B0953
:101980007A6802FB03F318460C37BD465DF8047B0A
:10199000704700BF00000020D34D621080B500AF3B
:1019A0006FF07F40FFF7C6FF0520FFF7B3FF00BFD2
:1019B00080BD80B584B000AF7860FFF7CBFFF860E2
:1019C00000BFFFF7C7FF0246FB689B1A23F07F4367
:1019D0007A689A42F5D800BF00BF1037BD4680BD77
:1019E00080B584B000AF78601E4B1B681E4AA2FB16
:1019F00003239B091D4AB2FBF3F37A68B2FBF3F3AE
:101A0000FB60184B1B68184AA2FB03239B09174A6B
:101A1000B2FBF3F27B68B3FBF2F101FB02F29B1A1B
:101A2000BB600FE00F4B1B680F4AA2FB03239B090F
:101A30000E4AB2FBF3F31846FFF798FF0346184629
:101A4000FFF7B7FFFB685A1EFA60002BEAD1B868AF
:101A5000FFF78CFF03461846FFF7ABFF00BF1037B8
:101A6000BD4680BD00000020D34D6210FFFF7F0007
:101A70000F49104A104B00F010F81049104A114B52
:101A800000F00BF81049114A114B00F006F811490B
:101A9000114A124B00F001F806E0521A03DD043A35
:101AA00098588850FBDC704700F0FEF9FEF74CFEBA
:101AB0000000002070000020244D00007000002075
:101AC00070000020944D0000700000207000002085
:101AD000944D00007000002070000020944D000024
:101AE000FEE7FEE7FEE7FEE7FEE7FEE7FEE7FEE7CE
:101AF000FEE7FEE7FEE700BF80B483B000AF154B02
:101B00001B687B60144B1B683B607B68072B19D1FB
:101B10003B68023B032B13D801A252F823F000BF0D
:101B2000311B0000351B0000391B00003D1B00006D
:101B3000012308E0002306E0002304E0002302E084
:101B4000002300E0002318460C37BD465DF8047BF7
:101B5000704700BF3001FF003401FF0080B483B044
:101B600000AF154B1B687B60144B1B683B607B68A8
:101B7000072B19D13B68023B032B13D801A252F863
:101B800023F000BF951B0000991B00009D1B000067
:101B9000A11B0000012308E0012306E0002304E06C
:101BA000002302E0002300E0002318460C37BD4666
:101BB0005DF8047B704700BF3001FF003401FF0077
:101BC00080B483B000AF154B1B687B60144B1B685F
:101BD0003B607B68072B19D13B68023B032B13D872
:101BE00001A252F823F000BFF91B0000FD1B00000A
:101BF000011C0000051C0000012308E0002306E092
:101C0000002304E0002302E0002300E00023184644
:101C10000C37BD465DF8047B704700BF3001FF0004
:101C20003401FF0080B483B000AF154B1B687B60AC
:101C3000144B1B683B607B68072B19D13B68023B48
:101C4000032B13D801A252F823F000BF5D1C000043
:101C5000611C0000651C0000691C0000012308E0F5
:101C6000012306E0012304E0012302E0012300E058
:101C7000002318460C37BD465DF8047B704700BF53
:101C80003001FF003401FF0080B483B000AF154B7A
:101C90001B687B60144B1B683B607B68072B19D16A
:101CA0003B68023B032B13D801A252F823F000BF7C
:101CB000C11C0000C51C0000C91C0000CD1C000098
:101CC000012308E0002306E0002304E0002302E0F3
:101CD000002300E0002318460C37BD465DF8047B66
:101CE000704700BF3001FF003401FF0080B483B0B3
:101CF00000AF154B1B687B60144B1B683B607B6817
:101D0000072B19D13B68023B032B13D801A252F8D1
:101D100023F000BF251D0000291D00002D1D00001F
:101D2000311D0000012308E0002306E0002304E049
:101D3000002302E0002300E0002318460C37BD46D4
:101D40005DF8047B704700BF3001FF003401FF00E5
:101D500080B483B000AF154B1B687B60144B1B68CD
:101D60003B607B68072B19D13B68023B032B13D8E0
:101D700001A252F823F000BF891D00008D1D000054
:101D8000911D0000951D0000012308E0002306E0DE
:101D9000002304E0002302E0002300E000231846B3
:101DA0000C37BD465DF8047B704700BF3001FF0073
:101DB0003401FF0080B483B000AF154B1B687B601B
:101DC000144B1B683B607B68072B19D13B68023BB7
:101DD000032B13D801A252F823F000BFED1D000021
:101DE000F11D0000F51D0000F91D0000012308E0B1
:101DF000012306E0012304E0012302E0012300E0C7
:101E0000002318460C37BD465DF8047B704700BFC1
:101E10003001FF003401FF0080B483B000AF154BE8
:101E20001B687B60144B1B683B607B68072B19D1D8
:101E30003B68023B032B13D801A252F823F000BFEA
:101E4000511E0000551E0000591E00005D1E0000BE
:101E5000002308E0002306E0002304E0012302E061
:101E6000012300E0002318460C37BD465DF8047BD3
:101E7000704700BF3001FF003401FF0080B400AFA5
:101E8000074B084A1B68C2F84435054B054ADB6915
:101E9000C2F84C3500BFBD465DF8047B704700BFFB
:101EA0000080FF000060005080B582B000AFFFF7F7
:101EB0004FFF0346002B0CD0734B1B68002B08D13F
:101EC000714B0D221A60714B01221A606F4B002278
:101ED0001A6000237B6000237B6011E04FF47F02D7
:101EE0004FF47F017B68603351F8333019467B68CB
:101EF0006033DB0013445B680B607B6801337B60FD
:101F00007B681F2B08D84FF47F027B68603352F840
:101F10003330B3F1FF3FE1D1FFF7B6FE0346002BAC
:101F200005D05B4B29221A605A4B03221A60FFF737
:101F3000E3FD0346002B07D0574B584A1A604FF079
:101F400050230122C3F85825FFF708FE0346002B53
:101F500002D0534B00221A60FFF732FE0346002BDB
:101F600011D04FF05023D3F8003403F00103002BBD
:101F700009D04FF050230022C3F814214FF0502312
:101F80000022C3F81821FFF74DFE0346002B0DD0A9
:101F90004FF05023D3F8003403F00103002B05D099
:101FA0004FF050236FF00102C3F80024FFF79EFEAC
:101FB0000346002B02D0364B65221A60FFF7FAFE6B
:101FC0000346002B21D0374B1B68002B1DDA4FF046
:101FD00050230322C3F818254FF0502301229A60A2
:101FE00000BF4FF05023D3F80431002BF9D04FF04D
:101FF00050230022C3F804214FF050230122DA605D
:102000004FF050230122C3F81825FFF705FF0346C0
:10201000002B1AD01E4B7E221A60234B7E221A60A0
:10202000224B7F221A60224B00221A60214B002291
:102030001A60214B00221A60204B00221A60204BAC
:1020400000221A601F4B00221A6000F03FF81E4B5E
:10205000D3F88C301C4A43F44063C2F88C30FFF74D
:102060000DFF194BD3F88830174A43F47003C2F8B8
:102070008830BFF34F8F00BFBFF36F8F00BF00BF2B
:102080000837BD4680BD00BF204A00501C490050A3
:102090000C4700503C470050309503504400EFBEC1
:1020A0004C250350202403503C4900501821005077
:1020B000049E0350089E035010111050242100501C
:1020C0002C210050A012205000ED00E080B485B01B
:1020D00000AF144BFB60144BBB604FF47F037B607D
:1020E00007E0FA68131FFB60BB68191FB96012682C
:1020F0001A60FA687B689A42F3D23F233B600B4A2E
:102100003B6803F5E07352F82330084923F01002CE
:102110003B6803F5E07341F823201437BD465DF8B2
:10212000047B7047FC0FFF00FCFF072000300050CD
:1021300080B483B000AF0346FB7197F90730002BE2
:102140000BDBFB7903F01F02074997F907305B09A6
:10215000012000FA02F241F8232000BF0C37BD46EF
:102160005DF8047B704700BF00E100E080B483B0FD
:1021700000AF0346FB7197F90730002B0CDBFB79AE
:1021800003F01F02074997F907305B09012000FAA5
:1021900002F2603341F8232000BF0C37BD465DF8E2
:1021A000047B704700E100E080B400AF00BFBD4693
:1021B0005DF8047B704780B483B000AF78607B68C3
:1021C000D3F8043518460C37BD465DF8047B7047DC
:1021D00080B584B000AF7860FFF7E6FF7868FFF75E
:1021E000EAFFF860FFF7E0FFFB6818461037BD46CE
:1021F00080BD80B582B000AF78607B681B681846F0
:10220000FFF7E6FF034618460837BD4680BD0000CD
:10221000B0B5B2B000AF07F1800324220021184608
:1022200001F075F91423C7F880301623C7F88430FD
:102230004FF0FF33C7F888304FF0FF33C7F88C30CA
:102240004FF0EB73C7F89430072387F8983007F105
:102250008003CD4A1946CD48FFF7AEF8C7F8AC0069
:102260000820FFF783FF0820FFF762FFC84A07F145
:102270007C031268114619800233120C1A70C54B88
:1022800007F168041D460FCD0FC42B682360C24BB5
:1022900007F154041D460FCD0FC42B682380BF4A9D
:1022A00007F1480307CA83E80700BD4B07F1340470
:1022B0001D460FCD0FC42B682360BA4B07F11804DD
:1022C0001D460FCD0FC495E8070003C42280B64B0E
:1022D0003C1D1D460FCD0FC42B681A4622800234C8
:1022E0001B0C2370B14A3B46126811461980023319
:1022F000120C1A7000F09CF90122AD49A348FFF7B7
:102300004DF90123C7F8B0300123C7F8C4300123C9
:10231000C7F8BC300123C7F8C0300123C7F8B43078
:102320003B460321184600F04BF907F168031421DE
:10233000184600F045F907F17C030321184600F028
:102340003FF907F118031A21184600F039F907F18F
:102350007C030321184600F033F90DE0954B1B6810
:10236000012B09D1944B1B68012B05D10023C7F821
:10237000BC30904B00221A60D7F8BC30012BEDD056
:10238000F7E0D7F8C430002B40DD0123C7F8B430A4
:102390003B460321184600F013F907F134031421DA
:1023A000184600F00DF907F17C030321184600F0F0
:1023B00007F927E08148FFF71CFF0346184602F0A3
:1023C000B3F96FA3D3E9002302F052FB02460B4698
:1023D0001046194602F034FC0346C7F8B830754B76
:1023E0001B68012B0ED1744B1B68012B07D13B4698
:1023F0000321184600F0E4F80023C7F8B4306D4B11
:1024000000221A60D7F8B430012BD3D0D7F8C430EB
:10241000052B00F2AE8001A252F823F03524000013
:102420007D240000AB240000D92400000725000013
:102430005F25000007F17C030321184600F0C0F877
:102440003B1D1321184600F0BBF807F17C03032164
:10245000184600F0B5F80CE0574B1B68002B05D16F
:102460000023C7F8B0300023C7F8C030514B00221A
:102470001A60D7F8B030012BEED07AE0D7F8B81058
:10248000142000F003FCC7F8A80007F17C03032127
:10249000184600F095F8D7F8A820D7F8C4101E20E9
:1024A00000F0CEFCC7F8C40063E0D7F8B8101420E1
:1024B00000F034FCC7F8A80007F17C03032118469C
:1024C00000F07EF8D7F8A820D7F8C4100A2000F052
:1024D000B7FCC7F8C4004CE0D7F8B8100A2000F0E9
:1024E00065FCC7F8A80007F17C030321184600F03B
:1024F00067F8D7F8A820D7F8C4100A2000F0A0FC8D
:10250000C7F8C40035E0D7F8B810142000F0BEFBBF
:10251000C7F8A8000123C7F8A430D7F8A40000F03A
:1025200085FBD7F8B83003F57A731946142000F00C
:10253000F5FB0246D7F8A8301344C7F8A83007F1D6
:102540007C030321184600F03BF8D7F8A820D7F801
:10255000C4101E2000F074FCC7F8C40009E007F1A5
:1025600054031221184600F02BF80023C7F8C4309A
:1025700000BFD7F8C030012B3FF403AFC1E600BF66
:10258000FCA9F1D24D624040A92B000004000020BC
:102590000004000004040000180400002C040000E3
:1025A000380400004C040000680400007C040000B3
:1025B000B0000020C0000020BC0000200C00002063
:1025C00080B582B000AF786039603A6800237968DE
:1025D0000748FEF74BFF00BF0548FEF7C3FF034661
:1025E000002BF9D100BF00BF0837BD4680BD00BF3A
:1025F0000400002080B582B000AF786039607A684E
:102600000349386800F020FF00BF0837BD4680BD91
:102610008004000080B584B000AF7860786800F076
:1026200083FCF860FB6818461037BD4680BD00008B
:1026300080B584B000AFFFF7B1F90A4A3B1D92E8BC
:1026400003001860043319803B1D00221946064818
:1026500000F0CCF9F860044800F01CFA00BF103715
:10266000BD4680BD840400000C00002080B483B00F
:1026700000AF78607B681B6800BF0C37BD465DF813
:10268000047B704780B400AF00BFBD465DF8047B9B
:10269000704780B400AF00BFBD465DF8047B704753
:1026A00080B400AF00BFBD465DF8047B704780B4C6
:1026B00083B000AF786039607B683A68C3F8042360
:1026C00000BF0C37BD465DF8047B704780B483B013
:1026D00000AF786039607B68D3F804233B6813400F
:1026E00018460C37BD465DF8047B704780B483B054
:1026F00000AF78600B467B807B887A6813441B6848
:10270000002B14BF01230023DBB218460C37BD4653
:102710005DF8047B704780B582B000AF78600B46EF
:102720007B807B887A68134400221A607B887A68F1
:1027300013441846FFF79AFF00BF0837BD4680BD17
:1027400080B483B000AF786039607B683A68C3F8C2
:10275000082500BF0C37BD465DF8047B704780B488
:1027600083B000AF78600B46FB70FA787B68134447
:102770001A460123136000BF0C37BD465DF8047B89
:10278000704780B483B000AF786039607B683A6886
:10279000C3F8482300BF0C37BD465DF8047B704783
:1027A00080B483B000AF0346FB71FB799B0003F557
:1027B000A0739BB218460C37BD465DF8047B70478A
:1027C00080B582B000AF786039603B681B681946FD
:1027D0007868FFF7B5FFFFF755FF00BF0837BD4624
:1027E00080BD80B586B000AFF860B96011461A466A
:1027F0000B46FB711346BB714FF48072B968F868E1
:1028000000F0D8F84FF48272B968F86800F0D2F896
:1028100000237B610DE07B69DBB21846FFF7C0FF48
:1028200003461A46B968F86800F0C4F87B690133BA
:102830007B617B69032BEED9FFF724FFBB79002B6B
:1028400003D0B968F868FFF732FFFFF71BFF00BF3E
:102850001837BD4680BD80B584B000AF7860396060
:102860003968786800F072F8F860FFF70BFFFB68D2
:1028700018461037BD4680BD80B584B000AF786083
:102880003960FFF70DFF39687868FFF71FFFF860C0
:10289000FFF7FFFEFB6818461037BD4680BD80B5C8
:1028A00082B000AF78600B46FB70FB781946786801
:1028B000FFF755FFFFF7E6FE00BF0837BD4680BDB6
:1028C00080B582B000AF7860396039687868FFF70A
:1028D00058FFFFF7D7FE00BF0837BD4680BD80B563
:1028E00084B000AFF860B9603B601346FB80FB88A2
:1028F000A3F580739B08012202FA03F31A46BB6812
:102900001340002B1DD0FB881946F868FFF7EEFE38
:102910000346002B15D0FB881946F868FFF7FBFE2D
:102920003B68002B0BD03B681B68FA88A2F58072CD
:102930009208012101FA02F21A433B681A6001234E
:1029400000E0002318461037BD4680BD80B584B036
:1029500000AF786039600023BB60FFF79AFE002368
:10296000FB600FE0FB68DBB21846FFF719FF034678
:102970001A4607F1080339687868FFF7B0FFFB686B
:102980000133FB60FB68032BECD907F108034FF41C
:10299000807239687868FFF7A2FF07F108034FF4E7
:1029A000827239687868FFF79AFFBB68184610375B
:1029B000BD4680BD80B584B000AFF860B9601346F5
:1029C000FB80FB88A3F580739B08012202FA03F3C6
:1029D0001A46BB681340002B04D0FB881946F868E0
:1029E000FFF799FE00BF1037BD4680BD80B586B0A9
:1029F00000AFF860B9607A60FB685B791946224ADB
:102A00007B6842F83130FB685B791F4ADB00134476
:102A10001B79002B03D01D4B7B617B6930E0FB6889
:102A20001868BB689A7800230021FFF7DAFEBB68BC
:102A30001B883B61FB681B6807F1100211461846B2
:102A4000FFF7BEFEFB685B791846BB6819790E4A32
:102A5000C30013440A465A71FB685B791846BB6889
:102A6000D978094AC30013440A469A71FB685B7916
:102A7000054ADB00134401221A71054B7B617B6917
:102A800018461837BD4680BDB40000200500AD0BC8
:102A90000000AD0B80B582B000AF78607B681B682A
:102AA00000211846FFF7FBFE7B685B79044ADB00D8
:102AB000134402221A7100BF0837BD4680BD00BF13
:102AC000B400002080B58AB000AFF860B9607A60C9
:102AD0002E4B3B62396AF868FFF7BDFEF8614FF490
:102AE0007021F868FFF7C8FEB86100237B6232E00E
:102AF0007B6ADBB21846FFF753FE0346FB82FB8A74
:102B0000A3F580739B08012202FA03F31A46BB69FE
:102B10001340002B1CD0FB8AA3F580739B08012275
:102B200002FA03F31A46FB691340002B10D0FB8A0C
:102B3000A3F580739B08012202FA03F31946F86893
:102B4000FFF7BEFEBB681B687A6AD2B21046984790
:102B50007B6A01337B627A6A7B689A42C8D3FB69DD
:102B600003F00103002B03D0BB681B6804209847C7
:102B7000FB6903F00203002B03D0BB681B68052030
:102B8000984700BF2837BD4680BD00BF03000F0037
:102B900080B500AF042202490248FFF793FF80BDD1
:102BA000B40000200040015080B584B000AF7860D0
:102BB00039603B68FB607B681B78012B25D1154B86
:102BC0001B780D2B11D1144B1B68144A0021D154D2
:102BD0001248FFF71FFD0346114A1360114B0122F3
:102BE0001A600D4B00221A600AE00B4B1B68094A61
:102BF00011780A4AD154084B1B680133064A136006
:102C0000012204490848FEF7C9FC00BF1037BD4641
:102C100080BD00BFB0000020C4000020C80000201C
:102C2000BC000020C00000200400002080B586B059
:102C300000AF78607B68032B1BD07B68032B21DC03
:102C40007B68012B03D07B68022B09D01AE02B2371
:102C5000BB8207F1140302211846FFF7B1FC11E013
:102C60002D233B8207F1100302211846FFF7A8FC31
:102C700008E05823BB8107F10C0302211846FFF737
:102C80009FFC00BF00BF1837BD4680BD80B588B02F
:102C900000AF786039603B68184600F011FA2B23CA
:102CA000BB8100F03BFA03467A6893FBF2F2796845
:102CB00001FB02F29B1A0133FB6100F02FFA03467D
:102CC0007A6893FBF2F2796801FB02F29B1A0133F6
:102CD000BB6107F114031946F869FFF78BFC07F194
:102CE00010031946B869FFF785FC07F114030321A7
:102CF0001846FFF765FC07F10C0302211846FFF7A1
:102D00005FFC07F1100303211846FFF759FCFA692D
:102D1000BB69134418462037BD4680BD80B588B0D6
:102D200000AF786039603B68184600F0C9F92D2380
:102D3000BB8100F0F3F903467A6893FBF2F27968FD
:102D400001FB02F29B1A0133FB6100F0E7F9034635
:102D50007A6893FBF2F2796801FB02F29B1A013365
:102D6000BB6107F114031946F869FFF743FC07F14B
:102D700010031946B869FFF73DFC07F1140303215E
:102D80001846FFF71DFC07F10C0302211846FFF758
:102D900017FC07F1100303211846FFF711FCFA692D
:102DA000BB69D31A18462037BD4680BD80B588B0B0
:102DB00000AF786039603B68184600F081F958230D
:102DC000BB8100F0ABF903467A6893FBF2F27968B5
:102DD00001FB02F29B1A0133FB6100F09FF90346ED
:102DE0007A6893FBF2F2796801FB02F29B1A0133D5
:102DF000BB6107F114031946F869FFF7FBFB07F104
:102E000010031946B869FFF7F5FB07F11403032116
:102E10001846FFF7D5FB07F10C0302211846FFF710
:102E2000CFFB07F1100303211846FFF7C9FBFB692D
:102E3000BA6902FB03F318462037BD4680BD000087
:102E4000B0B594B000AFF860B9607A60234B07F179
:102E500028041D460FCD0FC40FCD0FC42B6823705F
:102E60001F4B07F110041D460FCD0FC495E803005A
:102E700084E80300FB68FB6428E01A4B1B68012B05
:102E800012D1184B00221A60174B1B687A689A42BD
:102E900002D1BB6801331CE007F11003182118466A
:102EA000FFF78EFB002314E0FB6C002B07D107F12A
:102EB000280321211846FFF783FB002309E04FF484
:102EC0007A70FEF78DFDFB6C013BFB64FB6C002B05
:102ED000D3DA18465037BD46B0BD00BF8C040000A1
:102EE000B0040000C0000020BC0000201FB5144644
:102EF0001A46094B05461B68D8684CB1074B009130
:102F00000749CDE901342B4600F06EFA00F08BFB47
:102F1000044B1C46F3E700BF20000020C80400005B
:102F2000D5040000030500000A22002100F0AEB91C
:102F300008B5064B044613B10021AFF30080044BE3
:102F40001B6803B19847204601F0AAFA0000000070
:102F50006C020020024B0146186800F025B800BF43
:102F60002000002070B50F4E0C460546316811B99F
:102F700000F00AFB30602146284600F005FB431CA8
:102F800003D14FF0FF34204670BDC41C24F003046D
:102F9000A042F8D0211A284600F0F6FA0130F2D10A
:102FA000EFE700BF2C0100202DE9F843CD1C0646B9
:102FB00025F0030508350C2D38BF0C25002D01DB4D
:102FC000A94204D90C2333600020BDE8F883DFF860
:102FD000D48000F069F8D8F800301C4644BB29467C
:102FE0003046FFF7BFFF431C044658D1D8F80040D5
:102FF0002746002F43D1002C4BD02368394630465A
:1030000004EB030900F0C0FA814542D12168304643
:103010006D1A2946FFF7A6FF01303AD023682B44EA
:103020002360D8F800305A6862BBC8F800700FE01F
:103030002268521B20D40B2A17D96119A34225609C
:1030400018BF5960636808BFC8F8001062514B6030
:10305000304600F02FF804F10B00231D20F007008C
:10306000C21A1CBF1B1AA350AFE76268A3420CBF71
:10307000C8F800205A60EBE723466468AEE73C4698
:103080007F68B6E71A465B68A342FBD10023536012
:10309000DEE70C233046336000F00CF894E705605F
:1030A000D6E700BF30010020014800F0BABA00BFE7
:1030B00074020020014800F0B5BA00BF740200207D
:1030C00038B5104B04461D682B6BB3B91820FFF7B9
:1030D00041FF0246286320B90B4B46210B48FFF7FE
:1030E00005FF0B490B4BC0E900130B4B002183601C
:1030F0000B2383810120C2E904012B6B00221C6198
:103100005A6138BD20000020040500001B050000A6
:103110000E33CDAB34126DE6ECDE0500164B10B568
:103120001C68236BB3B91820FFF714FF0246206315
:1031300020B9124B52211248FFF7D8FE1149124B09
:10314000C0E90013114B002183600B238381012010
:10315000C2E90401216B0E480B694C690D4A5843C2
:1031600002FB0400A3FB0232013340EB0200C1E981
:10317000043020F0004010BD2000002004050000B5
:103180001B0500000E33CDAB34126DE6ECDE0500FE
:103190002DF451582D7F954C242B2DE9F047864670
:1031A000904601D8012B06D100F010FA16230360D7
:1031B0000020BDE8F0870D4633482A4615F8014B3C
:1031C000065D16F00806F8D12D2C10D12C780126BA
:1031D000951C33F0100215D1302C0DD12A7802F055
:1031E000DF02582A08D16C78023510230AE02B2C14
:1031F00004BF2C78951CECE7002BF6D1302C14BFC3
:103200000A23082306F1004C00220CF1FF3C104673
:10321000BCFBF3F903FB19CAA4F13007092F0FD83F
:103220003C46A3421BDD571C07D0814514D301D176
:10323000A24511DB00FB0340012215F8014BEBE72F
:10324000A4F14107192F01D8373CEAE7A4F161073F
:10325000192F04D8573CE4E74FF0FF32EDE7531C39
:1032600008D122236046CEF80030B8F1000FA0D07C
:10327000691E06E006B14042B8F1000F99D0002A5D
:10328000F6D1C8F8001094E7A805000013460A46D6
:10329000014602480068FFF77FBF00BF2000002002
:1032A000002310B504468360818119464366C281BC
:1032B00008228361C0E90033C0E904335C3000F0C8
:1032C00026F90D4B246263620C4BA3620C4BE36244
:1032D0000C4B23630C4B9C4206D003F168029442D2
:1032E00002D0D0339C4205D104F15800BDE8104013
:1032F00000F096B910BD00BF89340000AB34000067
:10330000E33400000735000034010020024A03497D
:10331000034800F07BB800BF1400002025400000E7
:103320002400002041680C4B994210B5044601D09E
:1033300000F078FEA168094B994202D0204600F0C7
:1033400071FEE168064B994204D02046BDE810406A
:1033500000F068BE10BD00BF340100209C010020B9
:103360000402002010B50B4B04210B4C0B4A2046E5
:103370001A600022FFF794FF04F16800012209217E
:10338000FFF78EFF04F1D00002221221BDE81040A9
:10339000FFF786BF6C020020340100200D330000CF
:1033A000014800F03EB900BF75020020014800F05E
:1033B00039B900BF7502002010B50446FFF7F0FFD1
:1033C000236A1BB1BDE81040FFF7F0BF044B236236
:1033D000044B1B68002BF5D1FFF7C4FFF2E700BFD9
:1033E000253300006C0200200EB403B503AB014688
:1033F000054853F8042B0068019300F0E7FA02B087
:103400005DF804EB03B07047200000202DE9F8437D
:103410000746884614460026D4E90195B9F101090A
:1034200005D52468002CF7D13046BDE8F883AB8978
:10343000012B07D9B5F90E30013303D029463846A0
:10344000C04706436835E9E70EB400B59CB06FF09D
:1034500000411DAB0290069007910491084809496C
:1034600053F8042B059102A90068019300F088F934
:10347000029B00221A701CB05DF804EB03B0704789
:10348000200000200802FFFF10B50C46B1F90E1015
:1034900000F068F80028ABBF636DA3891B1823F404
:1034A0008053ACBF6365A38110BD2DE9F0411F4679
:1034B0008B8905460C46DB05164605D502230022FE
:1034C000B1F90E1000F03CF8A3893246B4F90E10A1
:1034D000284623F48053A3813B46BDE8F04100F029
:1034E00063B810B50C46B1F90E1000F029F8431C72
:1034F000A38915BF606523F4805343F48053A381EF
:1035000018BFA38110BDB1F90E1000F009B8024434
:103510000346934200D1704703F8011BF9E700000E
:1035200038B50023054D044608462B6000F068FFBF
:10353000431C02D12B6803B1236038BD7002002008
:1035400038B50446064D0846114600222A601A4640
:1035500000F07EFF431C02D12B6803B1236038BD0D
:103560007002002038B50446064D08461146002278
:103570002A601A4600F074FF431C02D12B6803B185
:10358000236038BD7002002038B50023054D044685
:1035900008462B6000F06CFF431C02D12B6803B17E
:1035A000236038BD7002002038B50446064D084639
:1035B000114600222A601A4600F06AFF431C02D11D
:1035C0002B6803B1236038BD70020020014B1868DE
:1035D000704700BF2000002070B50D4D00260D4C37
:1035E000641BA410A64209D10B4D00260B4C01F020
:1035F0004FFB641BA410A64205D170BD55F8043BD7
:1036000001369847EEE755F8043B01369847F2E754
:103610009C4C00009C4C00009C4C0000A04C000006
:10362000704770477047062008B500F0F9FD01208B
:1036300000F036FF38B50546002941D051F8043C6A
:103640000C1F002BB8BFE418FFF72EFD1D4A1368AE
:1036500033B9636014602846BDE83840FFF72ABDDF
:10366000A34208D9206821188B4201BF19685B6802
:1036700009182160EDE71A465B680BB1A342FAD93D
:1036800011685018A0420BD12068014450181160F5
:103690008342E0D118685B68084453601060DAE741
:1036A00002D90C232B60D6E7206821188B4202BF79
:1036B00019685B680918636008BF21605460CAE735
:1036C00038BD00BF300100202DE9F0471F468E684D
:1036D00082460C46BE4290460B682DD8B1F90C20AC
:1036E00012F4906F26D06569096905EB4505A3EBD7
:1036F00001097B1C05EBD5754B446D109D4238BF0D
:103700001D46530527D52946FFF74EFC064660B3F4
:103710004A46216900F0AEFDA38923F4906343F08B
:103720008003A38126614E446561A5EB09052660EF
:103730003E46A560BE4200D93E463246414620681C
:1037400000F02CFDA36800209B1BA360236833447A
:103750002360BDE8F0872A4600F099FD0646002860
:10376000E0D121695046FFF765FF0C234FF0FF3091
:10377000CAF80030A38943F04003A381E9E70000C1
:103780002DE9F04F98468B899DB007461B060D46E4
:10379000144610D50B6973B94021FFF705FC28606A
:1037A000286130B90C233B604FF0FF301DB0BDE8FD
:1037B000F08F40236B610023CDF80C804FF001099E
:1037C000DFF8A081099320238DF8293030238DF86C
:1037D0002A3023469A4613F8012B0AB1252AF9D13B
:1037E000BAEB040B0BD05B46224629463846FFF75E
:1037F0006BFF013000F0A780099A5A4409929AF8A9
:103800000030002B00F09F8000234FF0FF320AF1C0
:10381000010A049307938DF853301A93CDE90523D9
:10382000544605224F4814F8011B00F015FD049A78
:10383000D8B9D00644BF20238DF85330110744BFB8
:103840002B238DF853309AF800302A2B15D0079A85
:10385000544600204FF00A0C214611F8013B303B42
:10386000092B4BD9B0B1079214E0A0EB0803A24694
:1038700009FA03F313430493D2E7039B191D1B6852
:10388000002B0391BBBF5B4242F0020207930793F8
:10389000B8BF049223782E2B0AD163782A2B32D119
:1038A000039B02341A1D1B6843EAE37303920593DA
:1038B000DFF8C0A003222178504600F0CDFC38B1DB
:1038C000A0EB0A004022049B01348240134304937E
:1038D00014F8011B062224488DF8281000F0BCFCC7
:1038E000002836D0214B1BBB039B073323F0070373
:1038F00008330393099B334409936AE70CFB0232B4
:103900000C460120A8E7002301344FF00A0C1946A9
:103910000593204610F8012B303A092A03D9002BD1
:10392000C6D00591C4E70CFB012104460123F0E752
:1039300003AB2A4604A9384600930D4BAFF3008031
:10394000421C0646D6D1AB895B063FF52DAF0998E0
:103950002CE703AB2A4604A938460093044B00F039
:10396000BFF9EDE7740500007E05000000000000CF
:10397000C93600007A0500009368013B002B936074
:1039800010B408DA9469A34201DB0A2903D15DF877
:10399000044B00F06FBB1368581C10600846197088
:1039A0005DF8044B7047F8B506460F461446D51827
:1039B000AC4201D1002007E03A4614F8011B304622
:1039C000FFF7DAFF431CF3D1F8BD00002DE9F04FFB
:1039D0000D469DB014469846064618B1036A0BB9C9
:1039E000FFF7EAFC6B6ED90705D4AB899A0502D4C0
:1039F000A86DFFF716FEAB891B0701D52B699BB994
:103A00002946304600F074FB70B16B6EDC0704D5BC
:103A10004FF0FF301DB0BDE8F08FAB899805F7D4AB
:103A2000A86DFFF7FFFDF3E70023CDF80C804FF002
:103A30000109DFF8B481099320238DF82930302360
:103A40008DF82A3023469A4613F8012B0AB1252A0D
:103A5000F9D1BAEB040B0BD05B462246294630461F
:103A6000FFF7A1FF013000F0A780099A5A4409929C
:103A70009AF80030002B00F09F8000234FF0FF32B7
:103A80000AF1010A049307938DF853301A93CDE994
:103A9000052354460522544814F8011B00F0DCFBB2
:103AA000049AD8B9D10644BF20238DF853301307A8
:103AB00044BF2B238DF853309AF800302A2B15D0B1
:103AC000079A544600204FF00A0C214611F8013B9A
:103AD000303B092B4BD9B0B1079214E0A0EB08039F
:103AE000A24609FA03F313430493D2E7039B191D7B
:103AF0001B68002B0391BBBF5B4242F0020207939D
:103B00000793B8BF049223782E2B0AD163782A2B0F
:103B100032D1039B02341A1D1B6843EAE3730392FC
:103B20000593DFF8D4A003222178504600F094FBDF
:103B300038B1A0EB0A004022049B013482401343B9
:103B4000049314F8011B062228488DF8281000F071
:103B500083FB00283FD0264B1BBB039B073323F07E
:103B6000070308330393099B3B4409936AE70CFB63
:103B700002320C460120A8E7002301344FF00A0C62
:103B800019460593204610F8012B303A092A03D92B
:103B9000002BC6D00591C4E70CFB0121044601238C
:103BA000F0E703AB2A4604A930460093114BAFF36C
:103BB00000800746781CD6D16B6ED90705D4AB8937
:103BC0009A0502D4A86DFFF72DFDAB895B063FF582
:103BD0001FAF09981EE703AB2A4604A9304600939D
:103BE000044B00F07DF8E4E7740500007E0500005A
:103BF00000000000A73900007A0500002DE9F04719
:103C0000164698468A6807460B690C46DDF82090F0
:103C10009342B8BF1346336091F843200AB1013391
:103C200033602368990642BF3368023333602568E6
:103C300015F0060506D104F1190AE36832689B1AEB
:103C4000AB422BDC94F843302268003B18BF0123C1
:103C5000920630D404F1430241463846C847013049
:103C600023D023681A3454F80A2C03F00603042BDB
:103C70000ABF54F80E5C002533684FF0000608BFF9
:103C8000ED1A54F8123C08BF25EAE5759342C4BF0B
:103C90009B1AED18B5421AD1002008E001235246C4
:103CA00041463846C847013003D14FF0FF30BDE8E8
:103CB000F0870135C1E7E1185A1C30200233224455
:103CC00081F8430094F8451082F84310C2E70123BD
:103CD000224641463846C8470130E6D00136D9E78A
:103CE0002DE9FF470F7E914680460C46782F9A4675
:103CF0000C9E01F1430207D8622F0AD8002F00F072
:103D0000D180582F00F0B88004F1420684F8427048
:103D10003AE0A7F16303152BF6D801A151F823F07F
:103D2000793D00008D3D0000093D0000093D000087
:103D3000093D0000093D00008D3D0000093D0000E7
:103D4000093D0000093D0000093D00008B3E0000D8
:103D5000B73D0000453E0000093D0000093D000060
:103D6000AD3E0000093D0000B73D0000093D0000E8
:103D7000093D00004D3E000033681A1D1B6832608B
:103D800004F1420684F8423001239CE03368206845
:103D9000191D3160060601D51D6803E04506FBD5F7
:103DA000B3F90050002D03DA2D236D4284F843301F
:103DB00058480A2311E021683368080653F8045B69
:103DC00002D4490648BFADB26F2F3360514814BFCB
:103DD0000A230823002184F843106668002EA66099
:103DE00005DB21682E4321F0040121604BD01646EB
:103DF000B5FBF3F103FB1157C75D06F8017D2F46B4
:103E00000D46BB42F4D9082B0BD12368DF0708D538
:103E1000236961689942DEBF302306F8013C06F150
:103E2000FF36921B22614B4603AA21464046CDF83D
:103E300000A0FFF7E3FE01304AD14FF0FF3004B09D
:103E4000BDE8F087236843F02003236078273248D9
:103E5000236884F845701F06316851F8045B02D46A
:103E60005F0648BFADB23160D90744BF43F02003BD
:103E700023601DB11023ADE72648E9E7236823F04E
:103E800020032360F6E71646BDE733682568181D52
:103E9000616930602E061B6801D5196002E0680672
:103EA000FBD51980002316462361BCE73368002147
:103EB0001A1D32601E686268304600F0CDF908B104
:103EC000801B606063682361002384F84330AAE7A5
:103ED0002369324649464046D0470130ADD0236879
:103EE0009B0713D4E068039B9842B8BF1846A6E727
:103EF0000123324649464046D04701309DD0013526
:103F0000E36803995B1AAB42F2DCEBE7002504F1AE
:103F10001906F5E78505000096050000B1F90C20AB
:103F20002DE9F041160705460C4654D44B68002B8A
:103F300002DC0B6C002B48DDE66A002E45D0002326
:103F400012F480522F68216A2B6030D0626DA389F1
:103F5000590705D56368D21A636B0BB1236CD21A6B
:103F60000023E66A216A2846B047431CA38906D18C
:103F700029681D292BD82A4ACA40D60727D50022EE
:103F8000D90462602269226004D5421C01D12B68E9
:103F900003B96065616B2F60B9B104F144039942C4
:103FA00002D02846FFF746FB002363630DE00123A0
:103FB0002846B0470246501CC9D12B68002BC6D0FA
:103FC0001D2B01D0162B1DD12F60002021E043F0C6
:103FD00040031BB21AE00F69002FF6D093070E685A
:103FE0000F600CBF4B690023A6EB07088B60B8F18C
:103FF000000FEADD43463A46216A2846A66AB047E2
:10400000002808DCB4F90C3043F040034FF0FF30D7
:10401000A381BDE8F0810744A8EB0008E7E700BFF3
:104020000100402038B50B6905460C4613B9002540
:10403000284638BD18B1036A0BB9FFF7BDF9B4F9CA
:104040000C30002BF3D0626ED00704D4990502D453
:10405000A06DFFF7E6FA28462146FFF75FFF636E83
:104060000546DA07E4D4A3899B05E1D4A06DFFF7E8
:10407000D9FADDE7F8B50E461446054618B1036ACD
:104080000BB9FFF799F9A369A360A3891A0701D5B2
:10409000236943B92146284600F02AF818B14FF0A9
:1040A000FF373846F8BD2368F6B222693746981ABA
:1040B0006369834205DC21462846FFF7B3FF0028E9
:1040C000EDD1A368013BA36023685A1C22601E70D7
:1040D000431C62699A4204D0A389DB07E1D50A2E0A
:1040E000DFD121462846FFF79DFF0028D9D0D6E72B
:1040F00038B5294B05460C46186818B1036A0BB948
:10410000FFF75AF9B4F90C30190722D4DA0607D4AC
:1041100009222A6043F040034FF0FF30A38133E0CF
:10412000580712D5616B41B104F14403994202D0A2
:104130002846FFF77FFA00236363A38923F0240353
:10414000A3810023636023692360A38943F00803EC
:10415000A38123694BB9A38903F42073B3F5007FCE
:1041600003D02146284600F0E5F8B4F90C3013F0EE
:1041700001020AD00022A26062695242A261226951
:1041800042B913F08000C5D138BD990758BF6269A4
:10419000A260F4E70020F7E720000020884210B575
:1041A00001EB020402D98442234607D8431EA142F0
:1041B00008D011F8012B03F8012FF8E7024401465B
:1041C0008A4200D110BD13F8014D02F8014DF7E706
:1041D0001F2938B505460C4604D9162303604FF055
:1041E000FF3038BDC26B12B152F821304BB92846AE
:1041F00000F030F8224601462846BDE8384000F07D
:1042000017B8012B0AD0591C03D1162303600120D3
:10421000E7E70021204642F8241098470020E0E715
:10422000024B01461868FFF7D3BF00BF20000020F3
:1042300038B50023064D0446084611462B6000F0B1
:10424000FFF8431C02D12B6803B1236038BD00BFC7
:104250007002002000F0E4B8C9B20346024410B571
:104260009342184601D1002003E0047801338C42C8
:10427000F6D110BD0A44431E914200D1704710B5DB
:1042800011F8014B914203F8014FF9D110BD2DE90E
:10429000F041074614460D4621B91146BDE8F041EC
:1042A000FEF782BE2AB92546FFF7C4F92846BDE8C5
:1042B000F08100F09DF88442064602D8B4EB500F1E
:1042C000F4D821463846FEF76FFE804608B94546C9
:1042D000ECE7B4422246294628BF3246FFF7CAFF20
:1042E00029463846FFF7A6F9F1E770B50C46B1F953
:1042F0000E1096B0154600291E460CDAA38900213F
:1043000013F0800F14BF40234FF48063002031600E
:104310002B6016B070BD6A4600F048F80028EDDB4F
:10432000019901F47041A1F50053594259414FF4EC
:104330008063EBE78B89F7B59D0706460C4607D5EA
:1043400004F14703236023610123636103B0F0BDDF
:1043500001AB6A46FFF7C9FF009F05463046394664
:10436000FEF722FE48B9B4F90C309A05EED423F0DA
:10437000030343F00203A381E2E7A389206043F033
:104380008003A381019BC4E904075BB1B4F90E105B
:10439000304600F01DF828B1A38923F0030343F051
:1043A0000103A381A3891D43A581CFE738B500236D
:1043B000064D0446084611462B6000F029F8431CC0
:1043C00002D12B6803B1236038BD00BF700200200A
:1043D00038B50023054D044608462B6000F028F848
:1043E000431C02D12B6803B1236038BD700200204A
:1043F00051F8043C181F002BBCBF0B58C018704765
:10440000024B58224FF0FF301A60704770020020B4
:10441000024B58224FF0FF301A60704770020020A4
:10442000024B58224FF0FF301A6070477002002094
:10443000024B582200201A60704700BF7002002013
:10444000024B58224FF0FF301A6070477002002074
:10445000024B58224FF0FF301A6070477002002064
:10446000024B58224FF0FF301A6070477002002054
:10447000054A0346106810B10344136070470348AF
:1044800003441360704700BF780200207C020020C4
:10449000024B58224FF0FF301A6070477002002024
:1044A000FEE700BF81F0004102E000BF83F000435F
:1044B00030B54FEA41044FEA430594EA050F08BFBF
:1044C00090EA020F1FBF54EA000C55EA020C7FEA83
:1044D000645C7FEA655C00F0E2804FEA5454D4EB00
:1044E0005555B8BF6D420CDD2C4480EA020281EACA
:1044F000030382EA000083EA010180EA020281EA02
:104500000303362D88BF30BD11F0004F4FEA013153
:104510004FF4801C4CEA113102D0404261EB410162
:1045200013F0004F4FEA03334CEA133302D05242E8
:1045300063EB430394EA050F00F0A780A4F10104A4
:10454000D5F1200E0DDB02FA0EFC22FA05F28018DE
:1045500041F1000103FA0EF2801843FA05F35941C4
:104560000EE0A5F120050EF1200E012A03FA0EFC43
:1045700028BF4CF0020C43FA05F3C01851EBE3716D
:1045800001F0004507D54FF0000EDCF1000C7EEB8A
:1045900000006EEB0101B1F5801F1BD3B1F5001FC8
:1045A0000CD349085FEA30004FEA3C0C04F10104E7
:1045B0004FEA445212F5800F80F09A80BCF1004F10
:1045C00008BF5FEA500C50F1000041EB045141EA92
:1045D000050130BD5FEA4C0C404141EB0101013C5B
:1045E00028BFB1F5801FE9D291F0000F04BF01464A
:1045F0000020B1FA81F308BF2033A3F10B03B3F11C
:1046000020020CDA0C3208DD02F1140CC2F10C02AB
:1046100001FA0CF021FA02F10CE002F11402D8BF09
:10462000C2F1200C01FA02F120FA0CFCDCBF41EAD5
:104630000C019040E41AA2BF01EB0451294330BDA4
:104640006FEA04041F3C1CDA0C340EDC04F1140481
:10465000C4F1200220FA04F001FA02F340EA030058
:1046600021FA04F345EA030130BDC4F10C04C4F19E
:10467000200220FA02F001FA04F340EA030029467E
:1046800030BD21FA04F0294630BD94F0000F83F4C8
:10469000801306BF81F480110134013D4EE77FEAAB
:1046A000645C18BF7FEA655C29D094EA050F08BFF7
:1046B00090EA020F05D054EA000C04BF19461046D8
:1046C00030BD91EA030F1EBF0021002030BD5FEA1C
:1046D000545C05D14000494128BF41F0004130BD44
:1046E00014F580043CBF01F5801130BD01F0004598
:1046F00045F0FE4141F470014FF0000030BD7FEA0B
:10470000645C1ABF194610467FEA655C1CBF0B4605
:10471000024650EA013406BF52EA033591EA030F1C
:1047200041F4002130BD00BF90F0000F04BF002114
:10473000704730B54FF4806404F132044FF0000547
:104740004FF0000150E700BF90F0000F04BF0021C0
:10475000704730B54FF4806404F1320410F0004526
:1047600048BF40424FF000013EE700BF42004FEA21
:10477000E2014FEA31014FEA02701FBF12F07F439E
:1047800093F07F4F81F06051704732F07F4208BF55
:10479000704793F07F4F04BF41F40021704730B55C
:1047A0004FF4607401F0004521F000411CE700BFA8
:1047B00050EA010208BF704730B54FF000050AE02B
:1047C00050EA010208BF704730B511F0004502D52C
:1047D000404261EB41014FF4806404F132045FEA2E
:1047E000915C3FF4D8AE4FF003025FEADC0C18BFD7
:1047F00003325FEADC0C18BF033202EBDC02C2F1C9
:10480000200300FA03FC20FA02F001FA03FE40EA5A
:104810000E0021FA02F11444BDE600BF70B54FF05E
:10482000FF0C4CF4E06C1CEA11541DBF1CEA13553C
:1048300094EA0C0F95EA0C0F00F0DEF82C4481EAA4
:10484000030621EA4C5123EA4C5350EA013518BFC4
:1048500052EA033541F4801143F4801338D0A0FBB1
:1048600002CE4FF00005E1FB02E506F00042E0FB5E
:1048700003E54FF00006E1FB03569CF0000F18BF64
:104880004EF0010EA4F1FF04B6F5007F64F540740C
:1048900004D25FEA4E0E6D4146EB060642EAC6219F
:1048A00041EA55514FEAC52040EA5E504FEACE2E0C
:1048B000B4F1FD0C88BFBCF5E06F1ED8BEF1004F0F
:1048C00008BF5FEA500E50F1000041EB045170BD8B
:1048D00006F0004646EA010140EA020081EA0301CF
:1048E000B4EB5C04C2BFD4EB0C0541EA045170BDCB
:1048F00041F480114FF0000E013C00F3AB8014F145
:10490000360FDEBF002001F0004170BDC4F100048D
:10491000203C35DA0C341BDC04F11404C4F120050E
:1049200000FA05F320FA04F001FA05F240EA020069
:1049300001F0004221F0004110EBD37021FA04F69F
:1049400042EB06015EEA430E08BF20EAD37070BD59
:10495000C4F10C04C4F1200500FA04F320FA05F0B8
:1049600001FA04F240EA020001F0004110EBD370BA
:1049700041F100015EEA430E08BF20EAD37070BD2A
:10498000C4F1200500FA05F24EEA020E20FA04F303
:1049900001FA05F243EA020321FA04F001F00041B2
:1049A00021FA04F220EA020000EBD3705EEA430E23
:1049B00008BF20EAD37070BD94F0000F0FD101F052
:1049C0000046400041EB010111F4801F08BF013C8B
:1049D000F7D041EA060195F0000F18BF704703F0C9
:1049E0000046520043EB030313F4801F08BF013D50
:1049F000F7D043EA0603704794EA0C0F0CEA13550C
:104A000018BF95EA0C0F0CD050EA410618BF52EAC5
:104A10004306D1D181EA030101F000414FF00000CB
:104A200070BD50EA410606BF1046194652EA4306D9
:104A300019D094EA0C0F02D150EA013613D195EA4D
:104A40000C0F05D152EA03361CBF104619460AD195
:104A500081EA030101F0004141F0FE4141F470019F
:104A60004FF0000070BD41F0FE4141F4780170BD8F
:104A700070B54FF0FF0C4CF4E06C1CEA11541DBFF4
:104A80001CEA135594EA0C0F95EA0C0F00F0A7F8F6
:104A9000A4EB050481EA030E52EA03354FEA013123
:104AA00000F088804FEA03334FF0805545EA131336
:104AB00043EA12634FEA022245EA111545EA1065FE
:104AC0004FEA00260EF000419D4208BF964244F195
:104AD000FD0404F5407402D25B084FEA3202B61AB4
:104AE00065EB03055B084FEA32024FF480104FF488
:104AF000002CB6EB020E75EB030E22BFB61A7546FC
:104B000040EA0C005B084FEA3202B6EB020E75EB8E
:104B1000030E22BFB61A754640EA5C005B084FEAF6
:104B20003202B6EB020E75EB030E22BFB61A7546C3
:104B300040EA9C005B084FEA3202B6EB020E75EBCE
:104B4000030E22BFB61A754640EADC0055EA060E8F
:104B500018D04FEA051545EA16754FEA06164FEAD2
:104B6000C30343EA52734FEAC2025FEA1C1CC0D17E
:104B700011F4801F0BD141EA00014FF000004FF00B
:104B8000004CB6E711F4801F04BF01430020B4F1CC
:104B9000FD0C88BFBCF5E06F3FF6AFAEB5EB030C84
:104BA00004BFB6EB020C5FEA500C50F1000041EB81
:104BB000045170BD0EF0004E4EEA113114EB5C044E
:104BC000C2BFD4EB0C0541EA045170BD41F4801121
:104BD0004FF0000E013C90E645EA060E8DE60CEA29
:104BE000135594EA0C0F08BF95EA0C0F3FF43BAF46
:104BF00094EA0C0F0AD150EA01347FF434AF95EAFD
:104C00000C0F7FF425AF104619462CE795EA0C0FE0
:104C100006D152EA03353FF4FDAE1046194622E7AD
:104C200050EA410618BF52EA43067FF4C5AE50EA87
:104C300041047FF40DAF52EA43057FF4EBAE12E777
:104C40004FEA410212F5001215D211D56FF47873B4
:104C5000B3EB625212D94FEAC12343F0004343EA57
:104C6000505311F0004F23FA02F018BF4042704732
:104C70004FF00000704750EA013005D111F00040BC
:104C800008BF6FF0004070474FF00000704700BF52
:104C9000F8B500BFF8BC08BC9E4670471D07000071
:104CA000F8B500BFF8BC08BC9E467047F50600008A
:104CB0001000000000000000017A5200027C0E018A
:104CC0001B0C0D0010000000180000000000000088
:0C4CD000100000000000000000000000C8
:104CDC00244D0000000000201C000000944D00003A
:104CEC007000002000000000944D000070000020B7
:104CFC0000000000944D0000700000200000000037
:104D0C0070000020830000007C02002000000000E6
:084D1C007C02002000000000F1
:104D24000090D003008000500000000000400150BB
:104D340014000400000000000300000034010020FF
:104D44002400002000000000340100209C01002009
:104D54000402002000000000000000000000000029
:104D6400000000000000000000000000000000003F
:104D7400000000000000000000000000000000002F
:104D8400000000000000000000000000000000001F
:0400000300001A716E
:00000001FF
