:10000000000004207D180000ED180000EF1800002B
:10001000F1180000F3180000F5180000F7180000B0
:10002000000000000000000000000000F9180000BF
:10003000FB18000000000000FD180000FF18000081
:100040000119000001190000000000000119000062
:100050000000000001190000000000000000000086
:100060000D1800000119000001190000011900001D
:100070000119000001190000011900000119000018
:10008000011900000119000000000000000000003C
:10009000DD28000001190000000000000000000041
:1000A00001190000011900000119000001190000E8
:1000B00001190000011900000119000001190000D8
:1000C00001190000011900000119000001190000C8
:1000D00001190000000000000119000000000000EC
:1000E00001190000000000000119000001190000C2
:1000F00000000000011900000000000001190000CC
:1001000000000000000000000000000001190000D5
:100110000119000000000000011900000119000091
:1001200000000000011900000000000000000000B5
:1001300000000000000000000000000000000000BF
:1001400000000000000000000000000000000000AF
:100150000119000000000000000000000000000085
:10016000000000000000000000000000000000008F
:10017000000000000000000000000000000000007F
:10018000000000000000000000000000000000006F
:10019000000000000000000000000000000000005F
:1004000000000741000000000A0D000077656C63E2
:100410006F6D6520746F205448452047616D6500FD
:10042000596F752057494E006E657874206C65765B
:10043000656C2100656E746572203120746F2063D5
:100440006F6E74696E756500656E7465722031201B
:10045000746F207374617274207468652047616DD5
:100460006500000057726F6E6720416E737765728A
:100470002C2047616D65204F76657200596F75724B
:100480002054696D65206861732072756E206F75E8
:10049000742C2047616D65204F7665720000000066
:1004A0005072657373203020746F207265737461AD
:1004B000727400001B6300002020202020202020D8
:1004C0002028282828282020202020202020202004
:1004D0002020202020202020881010101010101024
:1004E000101010101010101004040404040404046C
:1004F00004041010101010101041414141414101FD
:1005000001010101010101010101010101010101DB
:1005100001010110101010101042424242424202EA
:1005200002020202020202020202020202020202AB
:100530000202021010101020000000000000000055
:1005400000000000000000000000000000000000AB
:10055000000000000000000000000000000000009B
:10056000000000000000000000000000000000008B
:10057000000000000000000000000000000000007B
:10058000000000000000000000000000000000006B
:10059000000000000000000000000000000000005B
:1005A000000000000000000000000000000000004B
:0805B000000000000000000043
:0805B8009800000001000000A2
:1005C0000348044B834202D0034B03B118477047E2
:1005D000640000206400002000000000064B074972
:1005E000C91A891048BF0131491003D0044B0BB11F
:1005F00001481847704700BF6400002064000020D5
:100600000000000010B5064C237843B9FFF7D8FF6F
:10061000044B13B10448AFF300800123237010BDD5
:1006200064000020000000009C32000008B5054B6B
:100630001BB105490548AFF30080BDE80840FFF74E
:10064000CDBF00BF00000000680000209C32000009
:10065000A3F5803A704700BF174B002B08BF134B20
:100660009D46FFF7F5FF00218B460F461348144ABD
:10067000121A02F0D9F90E4B002B00D098470D4BFF
:10068000002B00D098470020002104000D000D48E9
:10069000002802D00C48AFF3008002F0D3F920000C
:1006A000290001F055FD02F029F900BF0000080003
:1006B0000000000000000000000004206400002092
:1006C00058020020000000000000000080B483B049
:1006D00000AF78607B681B6800BF0C37BD465DF8D3
:1006E000047B704780B400AF00BFBD465DF8047B5B
:1006F000704780B400AF00BFBD465DF8047B704713
:1007000080B400AF00BFBD465DF8047B704780B485
:1007100083B000AF786039603B6803F06043B3F1A9
:10072000005F0CBF01230023DBB218460C37BD4627
:100730005DF8047B704780B582B000AF78600B46EF
:100740007B807B887A68134400221A607B887A68F1
:1007500013441846FFF7BAFF00BF0837BD4680BDF7
:1007600080B483B000AF78600B467B807B887A686A
:1007700013441B68002B14BF01230023DBB218466F
:100780000C37BD465DF8047B704780B483B000AF82
:10079000786039607B68D3F800223B681A437B6835
:1007A000C3F8002200BF0C37BD465DF8047B7047DC
:1007B00080B483B000AF786039607B68D3F80022E2
:1007C0003B68DB431A407B68C3F8002200BF0C374C
:1007D000BD465DF8047B704780B483B000AF78609D
:1007E00039607B683A68C3F8042300BF0C37BD4604
:1007F0005DF8047B704780B483B000AF78603960E7
:100800007B683A68C3F8082300BF0C37BD465DF823
:10081000047B704780B485B000AF78607B68D3F804
:100820008034FB607B68FA68C3F88024FB68184654
:100830001437BD465DF8047B704780B483B000AFC9
:1008400078607B680822C3F8002500BF0C37BD46DE
:100850005DF8047B704780B483B000AF78607B683C
:100860000022C3F8002500BF0C37BD465DF8047BAD
:10087000704780B485B000AFF860B9607A60FB68FB
:10088000BA68C3F80C25FB687A68C3F8142500BF62
:100890001437BD465DF8047B704780B485B000AF67
:1008A000F860B9607A60FB68BA68C3F80825FB682D
:1008B0007A68C3F8102500BF1437BD465DF8047B85
:1008C000704780B483B000AF78600B46FB70FB7854
:1008D0007A68134401221A6000BF0C37BD465DF8E8
:1008E000047B704780B483B000AF786039603B68A8
:1008F0005A783B689B781343DBB21A463B689B8867
:1009000013433A6812781A437B68C3F86C2500BF1A
:100910000C37BD465DF8047B704780B483B000AFF0
:10092000786039607B683A68C3F8242500BF0C37CB
:10093000BD465DF8047B704780B485B000AFF860B9
:10094000B9607A60BA68FB68C3F84425FB687A68C6
:10095000C3F8482500BF1437BD465DF8047B7047D7
:1009600080B483B000AF78607B68D3F84C3518460C
:100970000C37BD465DF8047B704780B485B000AF8E
:10098000F860B9607A60BA68FB68C3F83425FB6820
:100990007A68C3F8382500BF1437BD465DF8047B7C
:1009A000704780B483B000AF78607B68D3F83C3583
:1009B00018460C37BD465DF8047B704780B582B0A1
:1009C00000AF786039603B681B6919467868FFF7AB
:1009D000A4FF3B68143319467868FFF783FF3B6830
:1009E0009B7E83F00103DBB2002B07D03B681968C4
:1009F0003B685B681A467868FFF73BFF3B681B7DE6
:100A0000012B0ED13B689B7E83F00103DBB2002BF0
:100A100007D03B6899683B68DB681A467868FFF73F
:100A20003CFFFFF75FFE00BF0837BD4680BD80B5C5
:100A300084B000AFF860B96011461A460B46FB71EE
:100A40001346BB714FF48072B968F86800F0A8F9DA
:100A50004FF48272B968F86800F0A2F94FF484721A
:100A6000B968F86800F09CF94FF48872B968F868C2
:100A700000F096F94FF48E72B968F86800F090F9BA
:100A80004FF49072B968F86800F08AF94FF49272E6
:100A9000B968F86800F084F94FF4A272B968F86890
:100AA00000F07EF94FF4A672B968F86800F078F9A2
:100AB0004FF4A872B968F86800F072F94FF4AC729C
:100AC000B968F86800F06CF9FFF70CFEBB79002BF1
:100AD00003D0B968F868FFF77FFEFFF703FE00BF99
:100AE0001037BD4680BD80B586B000AFF860B960F4
:100AF0007A607A68B968F86800F0A5F97861FFF75C
:100B0000F1FD7B6918461837BD4680BD80B582B0BF
:100B100000AF786039600C217868FFF7D2FEFFF7EC
:100B2000E1FD00BF00224FF48001786800F08BF9EE
:100B30000346002BF6D03B68002B13D03B685B6864
:100B4000002B0FD004217868FFF7BBFEFFF7CAFD2A
:100B500000BF3A684FF40031786800F074F903463A
:100B6000002BF6D000BF0837BD4680BD80B584B0ED
:100B700000AF78600B46FB700023FB6008217868AB
:100B8000FFF79FFEFB78002B0CD00A4BBB60FFF7F2
:100B9000A9FD0022B9687868FFF7A5FFF860FB6837
:100BA000002BF6D0FFF79EFDFB6818461037BD46B8
:100BB00080BD00BF0001400080B584B000AF786008
:100BC00039600023FB6000217868FFF77AFE3B68FC
:100BD000002B0CD0094BBB60FFF784FD3A68B96865
:100BE0007868FFF780FFF860FB68002BF6D0FFF70E
:100BF00079FDFB6818461037BD4680BD1002020023
:100C000080B582B000AF78600B467B807B88194648
:100C10007868FFF790FDFFF765FD00BF0837BD4618
:100C200080BD80B582B000AF78603960396878687F
:100C3000FFF7ABFDFFF756FD00BF0837BD4680BD8F
:100C400080B582B000AF7860396039687868FFF7A6
:100C5000AFFDFFF747FD00BF0837BD4680BD80B53B
:100C600082B000AF7860396039687868FFF7B4FD0A
:100C7000FFF738FD00BF0837BD4680BD80B582B0A4
:100C800000AF7860396039687868FFF7B4FDFFF726
:100C900029FD00BF0837BD4680BD80B584B000AFD8
:100CA0007860FFF72DFD7868FFF7B4FDF860FFF777
:100CB00027FDFB6818461037BD4680BD80B582B061
:100CC00000AF78607868FFF7B8FDFFF70BFD00BF55
:100CD0000837BD4680BD80B582B000AF78607868C7
:100CE000FFF7B9FDFFF7FEFC00BF0837BD4680BD2A
:100CF00080B582B000AF78600B46FB70FB78194678
:100D00007868FFF7DEFDFFF7EDFC00BF0837BD4652
:100D100080BD80B584B000AFF860B9607A60BB6810
:100D2000002B06D07A68B968F868FFF705FEFFF770
:100D3000D9FC00BF1037BD4680BD80B584B000AF80
:100D40007860FFF7D6FC7868FFF70AFEF860FFF7D7
:100D5000D0FCFB6818461037BD4680BD80B584B016
:100D600000AFF860B9607A607A68B968F868FFF730
:100D700004FEFFF7B7FC00BF1037BD4680BD80B54D
:100D800084B000AF7860FFF7B4FC7868FFF709FE25
:100D9000F860FFF7AEFCFB6818461037BD4680BD13
:100DA00080B584B000AFF860B9601346FB80FB8863
:100DB000A3F580739B08012202FA03F31A46BB686D
:100DC0001340002B04D0FB881946F868FFF7B3FCEA
:100DD00000BF1037BD4680BD80B584B000AFF8605D
:100DE000B9603B601346FB80FB88A3F580739B08CA
:100DF000012202FA03F31A46BB681340002B1DD0F0
:100E0000FB881946F868FFF7ABFC0346002B15D0AA
:100E1000FB881946F868FFF78EFC3B68002B0BD067
:100E20003B681B68FA88A2F580729208012101FADA
:100E300002F21A433B681A60012300E000231846BF
:100E40001037BD4680BD80B586B000AFF860B96090
:100E50007A6000233B61FFF74CFC07F110034FF46D
:100E60008072B968F868FFF7B7FF07F110034FF415
:100E70008272B968F868FFF7AFFF07F110034FF40B
:100E80008472B968F868FFF7A7FF07F110034FF401
:100E90008872B968F868FFF79FFF07F110034FF4F5
:100EA0008E72B968F868FFF797FF07F110034FF4E7
:100EB0009072B968F868FFF78FFF07F110034FF4DD
:100EC0009272B968F868FFF787FF07F110034FF4D3
:100ED000A272B968F868FFF77FFF07F110034FF4BB
:100EE000A672B968F868FFF777FF07F110034FF4AF
:100EF000A872B968F868FFF76FFF07F110034FF4A5
:100F0000AC72B968F868FFF767FFBB6803F01003BD
:100F1000002B0AD1BB6803F40033002B05D0F8681E
:100F2000FFF73FFD7861FFF7EBFBFFF7DBFB3B696A
:100F300018461837BD4680BD80B584B000AF7860D4
:100F40000023FB60786800F09CF80346002B02D079
:100F5000012B03D004E0054BFB6001E0044BFB6078
:100F6000FB6818461037BD4680BD00BF0025845081
:100F70000028845080B586B000AF786008461146DE
:100F80001A460346FB700B46BB7013467B703B1D35
:100F90001846FFF7D1FF78617A687B69803253F891
:100FA00022303B61114BFB60FB68DB433A69134025
:100FB0003B61FA78BB785B001A437B789B001A434D
:100FC00097F820301B021A4397F824301B04134370
:100FD0003A6913433B617A687B698032396943F827
:100FE000221000BF1837BD4680BD00BF0F0F0300A1
:100FF00080B584B002AF7860002301930023009392
:101000000023012201217868FFF7B4FF00BF0837F1
:10101000BD4680BD80B584B002AF78600B46FB70E2
:10102000FB780022019200220092002200217868C1
:10103000FFF7A0FF00BF0837BD4680BD80B584B074
:1010400000AF78603B1D1846FFF776FFF8607B68BD
:10105000012202FA03F31946F86800F004F800BF11
:101060001037BD4680BD80B483B000AF7860396072
:101070007B683A689A6000BF0C37BD465DF8047B18
:10108000704780B485B000AF78607B681B68FB60F8
:10109000FB6803F01F027B681A60FB685B09184657
:1010A0001437BD465DF8047B704780B582B000AF51
:1010B00078607868FFF79CFFFFF714FB00BF0837E4
:1010C000BD4680BD80B582B000AF78600B46FB7036
:1010D000FB7819467868FFF79DFFFFF703FB00BF19
:1010E0000837BD4680BD80B582B000AF78607868B3
:1010F000FFF7A4FFFFF7F6FA00BF0837BD4680BD33
:1011000080B58AB000AF786039603B6893F82030D2
:1011100083F00103DBB2002B19D03B681B68B3F1ED
:10112000FF3F09D03B681B681846FFF7DCFF3B68B0
:101130001B681846FFF7B9FF3B685B68B3F1FF3FD8
:1011400005D03B685B6800211846FFF7BBFF3B6892
:101150009B7E012B21D13B6893F8203083F0010363
:10116000DBB2002B19D03B68DB68B3F1FF3F05D041
:101170003B68DB6800211846FFF7A4FF3B689B68CB
:10118000B3F1FF3F09D03B689B681846FFF7ABFF00
:101190003B689B681846FFF788FF07F10C030022A5
:1011A0001A605A609A60DA601A615A619A613B6803
:1011B0001B68FB603B685B683B613B689B687B61CD
:1011C0003B68DB68BB613B685B69FB613B6893F82C
:1011D000213087F826303A6807F120031A32106868
:1011E000186092889A807B681B6807F10C02114690
:1011F0001846FFF7E3FB786800F01EF87B681B7960
:1012000019460B4A0B46DB000B449B001344043386
:101210001B68002B07D07B6818683B681A7E012387
:101220000449FFF704FC00BF2837BD4680BD00BF5E
:10123000800000201003420080B586B000AF7860C7
:101240007B681B6803F26453FB607B681B6803F5D3
:10125000AD63BB60BB681B68012B05D17B681B6855
:101260000C211846FFF744FDFB681B68012B26D1B3
:101270007B681B681846FFF721FD7B681B6804210B
:101280001846FFF735FD0023FB7549F640433B61E7
:10129000FB681B68002B02D10123FB7505E03B694D
:1012A000013B3B613B69002BF2D17B681B68184610
:1012B000FFF7F3FC7B681B681846FFF70CFD00BFC7
:1012C0001837BD4680BD000080B586B000AFF8601D
:1012D000B9607A60FB681B791A461346DB00134439
:1012E0009B00234A13447B61224B3B617B6993F84B
:1012F0002030002B03D0204B3B613B6934E07B69FD
:101300007A685A60BB68002B1BD0BB681A697B697E
:101310001A60BB6893F820107A6992F8223061F362
:10132000000382F82230BB6893F821107A6992F8A2
:10133000223061F3410382F82230B968F868FFF780
:10134000DFFEFB681B681846FFF7B8FC7B690022CC
:101350009A617B690022DA617B6900225A617B69AC
:10136000012283F820203B6918461837BD4680BD0E
:10137000800000200000AD0B0500AD0B80B588B0EB
:1013800000AFF860B9607A603B60FB681B791A4671
:101390001346DB0013449B00314A1344BB61314BBD
:1013A000FB61FB681B68B9681846FFF7B0F9034694
:1013B00083F00103DBB2002B03D02B4BFB61FB69F5
:1013C0004AE0F86800F056F80346002B03D0274B9C
:1013D000FB61FB6940E0BB697A685A61BB69BA6826
:1013E0009A60FB681B684FF490711846FFF708FC81
:1013F000FB681B684FF4AC711846FFF701FCFB68F3
:101400001868BB699968BB695B691A46FFF781FC7C
:10141000FB681A68BB695B68002B0CBF01230023C3
:10142000DBB219461046FFF7A1FB7861BB695B6828
:10143000002B10D17B6903F48003002B02D00C4BEE
:10144000FB6105E0FB681B6800211846FFF75EFBA7
:10145000BB6900225A61FB6918462037BD4680BD32
:10146000800000200000AD0B0A00AD0B0B00AD0B9F
:101470000800AD0B80B483B000AF78607B681B7947
:101480001946094A0B46DB000B449B0013441433F6
:101490001B68002B14BF01230023DBB218460C3756
:1014A000BD465DF8047B70478000002080B58AB09F
:1014B00000AFF860B9607A60FB681B791A46134682
:1014C000DB0013449B00584A1344BB61574B7B62BB
:1014D000FB681B68B9681846FFF719F9034683F0E3
:1014E0000103DBB2002B03D0514B7B627B6A97E098
:1014F000002387F82330BB695B68002B06D0FB68AC
:101500001B684FF404711846FFF7B8FBBB699B6971
:10151000002B15D0BB69DB69002B0ED0BB695B6863
:10152000002B06D0FB681B684FF404711846FFF7C8
:1015300096FB404B7B627B6A72E0012387F8233085
:1015400097F8233083F00103DBB2002B09D0BB698D
:101550007A689A61BB69BA68DA60BB690022DA61AD
:1015600005E0BB69BA681A61BB697A68DA61FB6831
:101570001B684FF488711846FFF742FBFB681B6835
:101580004FF4A2711846FFF73BFBFB681B687A68B3
:10159000B9681846FFF7E2FB0023FB6197F8233098
:1015A000002B06D0FB681B6820211846FFF739FB8B
:1015B00014E0BB69DB683B61BB699B697B61FB68CD
:1015C0001A68BB695B68002B02D107F1100300E0C9
:1015D000002319461046FFF7EFFAF861BB695B6814
:1015E000002B11D1BB6900229A61FB6903F40073DF
:1015F000002B01D0104B7B62FB6903F40033002BFE
:101600000DD00E4B7B620AE0BB69002283F82120DB
:10161000FB681B684FF404711846FFF720FB7B6AD8
:1016200018462837BD4680BD800000200000AD0B65
:101630000A00AD0B0B00AD0B0100AD0B0800AD0BAC
:1016400080B588B000AFF860B9607A6001233B7460
:10165000BB68BB617B687B61FB685B68FA6811688B
:1016600007F110021046984700BF2037BD4680BDE5
:1016700080B586B000AF7860396000233B723B686C
:101680003B617B689B68FB607B6800225A617B68DA
:101690005B687A68116807F108021046984700BF36
:1016A0001837BD4680BD000080B58CB000AF7860B3
:1016B00039603B68DB68FB613B689B693B6207F113
:1016C0001C031A4650497868FFF70DFAF862FB6A66
:1016D00003F40073002B1DD002233B737868FFF7DF
:1016E000DCFA0346BB617868FFF749FB03467B6180
:1016F0003B68DB683B613B6800229A613B680022E3
:10170000DA613B685B683A68116807F10C021046C1
:10171000984735E0FB6A03F01003002B30D03B689C
:1017200093F8213083F00103DBB2002B28D03B6813
:101730009B69BB623B68DB69002B17D03B68DB68A9
:101740007B6220217868FFF77BFA3B68DA693B68A7
:101750009A613B681A693B68DA603B680022DA618B
:101760007A6AB96A3868FFF76BFF09E03B680022C4
:101770009A613B68DB681A46B96A3868FFF760FF10
:10178000FB6A03F40033002B13D03B689B69002BEA
:101790000FD03B6800229A613B680022DA617868CA
:1017A000FFF7EDFA01463B68DB681A463868FFF739
:1017B00047FFFB6A03F48073002B0FD00C2178687D
:1017C000FFF796FA3B685B69002B07D07868FFF754
:1017D000B4FA034619463868FFF74AFFFB6A03F478
:1017E0008003002B0BD03B685B69002B07D0786827
:1017F000FFF7A3FA034619463868FFF739FF00BF21
:101800003037BD4680BD00BF1003420080B500AF39
:1018100002490348FFF748FF80BD00BF8000002059
:101820000080005080B483B000AF7860044A7B68C9
:10183000136000BF0C37BD465DF8047B704700BFE6
:1018400010E000E080B483B000AF7860044A7B68A9
:10185000536000BF0C37BD465DF8047B704700BF86
:1018600010E000E080B500AF6FF07F40FFF7EAFFC7
:101870000520FFF7D7FF00BF80BD00000F49104AC9
:10188000104B00F010F81049104A114B00F00BF803
:101890001049114A114B00F006F81149114A124B38
:1018A00000F001F806E0521A03DD043A9858885017
:1018B000FBDC704700F0FEF9FEF7CEFE00000020D2
:1018C0006400002010330000640000206400002049
:1018D00074330000640000206400002074330000B2
:1018E000640000206400002074330000FEE7FEE77F
:1018F000FEE7FEE7FEE7FEE7FEE7FEE7FEE7FEE7C0
:10190000FEE700BF80B483B000AF154B1B687B605F
:10191000144B1B683B607B68072B19D13B68023B6B
:10192000032B13D801A252F823F000BF3D19000089
:10193000411900004519000049190000012308E081
:10194000002306E0002304E0002302E0002300E07F
:10195000002318460C37BD465DF8047B704700BF76
:101960003001FF003401FF0080B483B000AF154B9D
:101970001B687B60144B1B683B607B68072B19D18D
:101980003B68023B032B13D801A252F823F000BF9F
:10199000A1190000A5190000A9190000AD19000047
:1019A000012308E0012306E0002304E0002302E015
:1019B000002300E0002318460C37BD465DF8047B89
:1019C000704700BF3001FF003401FF0080B483B0D6
:1019D00000AF154B1B687B60144B1B683B607B683A
:1019E000072B19D13B68023B032B13D801A252F8F5
:1019F00023F000BF051A0000091A00000D1A0000AC
:101A0000111A0000012308E0002306E0002304E08F
:101A1000002302E0002300E0002318460C37BD46F7
:101A20005DF8047B704700BF3001FF003401FF0008
:101A300080B483B000AF154B1B687B60144B1B68F0
:101A40003B607B68072B19D13B68023B032B13D803
:101A500001A252F823F000BF691A00006D1A0000BD
:101A6000711A0000751A0000012308E0012306E046
:101A7000012304E0012302E0012300E000231846D3
:101A80000C37BD465DF8047B704700BF3001FF0096
:101A90003401FF0080B483B000AF154B1B687B603E
:101AA000144B1B683B607B68072B19D13B68023BDA
:101AB000032B13D801A252F823F000BFCD1A000067
:101AC000D11A0000D51A0000D91A0000012308E03D
:101AD000002306E0002304E0002302E0002300E0EE
:101AE000002318460C37BD465DF8047B704700BFE5
:101AF0003001FF003401FF0080B483B000AF154B0C
:101B00001B687B60144B1B683B607B68072B19D1FB
:101B10003B68023B032B13D801A252F823F000BF0D
:101B2000311B0000351B0000391B00003D1B00006D
:101B3000012308E0002306E0002304E0002302E084
:101B4000002300E0002318460C37BD465DF8047BF7
:101B5000704700BF3001FF003401FF0080B483B044
:101B600000AF154B1B687B60144B1B683B607B68A8
:101B7000072B19D13B68023B032B13D801A252F863
:101B800023F000BF951B0000991B00009D1B000067
:101B9000A11B0000012308E0002306E0002304E06D
:101BA000002302E0002300E0002318460C37BD4666
:101BB0005DF8047B704700BF3001FF003401FF0077
:101BC00080B483B000AF154B1B687B60144B1B685F
:101BD0003B607B68072B19D13B68023B032B13D872
:101BE00001A252F823F000BFF91B0000FD1B00000A
:101BF000011C0000051C0000012308E0012306E091
:101C0000012304E0012302E0012300E00023184641
:101C10000C37BD465DF8047B704700BF3001FF0004
:101C20003401FF0080B483B000AF154B1B687B60AC
:101C3000144B1B683B607B68072B19D13B68023B48
:101C4000032B13D801A252F823F000BF5D1C000043
:101C5000611C0000651C0000691C0000002308E0F6
:101C6000002306E0002304E0012302E0012300E05A
:101C7000002318460C37BD465DF8047B704700BF53
:101C80003001FF003401FF0080B400AF074B084A69
:101C90001B68C2F84435054B054ADB69C2F84C3570
:101CA00000BFBD465DF8047B704700BF0080FF00A9
:101CB0000060005080B582B000AFFFF74FFF0346D1
:101CC000002B0CD0734B1B68002B08D1714B0D22DD
:101CD0001A60714B01221A606F4B00221A600023B8
:101CE0007B6000237B6011E04FF47F024FF47F01A3
:101CF0007B68603351F8333019467B686033DB0012
:101D000013445B680B607B6801337B607B681F2B2F
:101D100008D84FF47F027B68603352F83330B3F158
:101D2000FF3FE1D1FFF7B6FE0346002B05D05B4B2A
:101D300029221A605A4B03221A60FFF7E3FD03467B
:101D4000002B07D0574B584A1A604FF050230122FE
:101D5000C3F85825FFF708FE0346002B02D0534B6B
:101D600000221A60FFF732FE0346002B11D04FF01D
:101D70005023D3F8003403F00103002B09D04FF0B7
:101D800050230022C3F814214FF050230022C3F83F
:101D90001821FFF74DFE0346002B0DD04FF05023C6
:101DA000D3F8003403F00103002B05D04FF050238B
:101DB0006FF00102C3F80024FFF79EFE0346002BDC
:101DC00002D0364B65221A60FFF7FAFE0346002B5D
:101DD00021D0374B1B68002B1DDA4FF05023032214
:101DE000C3F818254FF0502301229A6000BF4FF02E
:101DF0005023D3F80431002BF9D04FF050230022A8
:101E0000C3F804214FF050230122DA604FF0502331
:101E10000122C3F81825FFF705FF0346002B1AD04F
:101E20001E4B7E221A60234B7E221A60224B7F2299
:101E30001A60224B00221A60214B00221A60214BAB
:101E400000221A60204B00221A60204B00221A60E8
:101E50001F4B00221A6000F03FF81E4BD3F88C3065
:101E60001C4A43F44063C2F88C30FFF70DFF194B56
:101E7000D3F88830174A43F47003C2F88830BFF3B0
:101E80004F8F00BFBFF36F8F00BF00BF0837BD4645
:101E900080BD00BF204A00501C4900500C47005034
:101EA0003C470050309503504400EFBE4C25035092
:101EB000202403503C49005018210050049E035038
:101EC000089E035010111050242100502C21005066
:101ED000A012205000ED00E080B485B000AF144B9C
:101EE000FB60144BBB604FF47F037B6007E0FA6834
:101EF000131FFB60BB68191FB96012681A60FA688B
:101F00007B689A42F3D23F233B600B4A3B6803F560
:101F1000E07352F82330084923F010023B6803F5C0
:101F2000E07341F823201437BD465DF8047B704709
:101F3000FC0FFF00FCFF07200030005080B483B08E
:101F400000AF0346FB7197F90730002B0BDBFB79E1
:101F500003F01F02074997F907305B09012000FAD7
:101F600002F241F8232000BF0C37BD465DF8047B28
:101F7000704700BF00E100E080B483B000AF0346CB
:101F8000FB7197F90730002B0CDBFB7903F01F0284
:101F9000074997F907305B09012000FA02F2603324
:101FA00041F8232000BF0C37BD465DF8047B704725
:101FB00000E100E080B400AF00BFBD465DF8047BE7
:101FC000704780B483B000AF78607B68D3F8043585
:101FD00018460C37BD465DF8047B704780B584B069
:101FE00000AF7860FFF7E6FF7868FFF7EAFFF86078
:101FF000FFF7E0FFFB6818461037BD4680BD80B58F
:1020000082B000AF78607B681B681846FFF7E6FF78
:10201000034618460837BD4680BD80B584B000AF82
:102020007860786800F066FCF860FB681846103746
:10203000BD4680BD80B584B000AF786039603B6834
:10204000FB607B681B78012B28D1164B01221A609C
:10205000012215491548FFF729FA134B1B780D2B60
:1020600011D1134B1B68134A0021D1541148FFF7BB
:10207000D4FF0346104A13600A4B01221A600C4B2E
:1020800000221A600AE00A4B1B68074A1178094AC5
:10209000D154074B1B680133054A136000BF10374A
:1020A000BD4680BDA8000020A40000200000002044
:1020B000AC000020B00000201000002080B58EB0E1
:1020C00000AF0820FFF758FF0820FFF737FF07F1A0
:1020D0000C0324220021184600F0A6FC1423FB6008
:1020E00016233B614FF0FF337B614FF0FF33BB6141
:1020F0004FF0EB733B62072387F8243007F10C03A2
:102100000E4A19460E48FFF7DFF87863FFF7AAFB7F
:102110000C4A3B1D92E803001860043319803B1DF4
:1021200000221946084800F007FB3863064800F013
:1021300057FB00BF3837BD4680BD00BF35200000CB
:102140000000002000040000080000200000000043
:10215000B0B5B2B000AF0123C7F8BC307C4A07F17C
:10216000AC031268114619800233120C1A70794BB5
:1021700007F198041D460FCD0FC42B682360764AE3
:1021800007F1900392E8030083E80300734A07F124
:10219000840307CA83E80700714B07F170041D46EA
:1021A0000FCD0FC42B6823606E4B07F154041D46FE
:1021B0000FCD0FC495E8070003C422806A4B07F1D6
:1021C0003C041D460FCD0FC495E8030084E80300CE
:1021D000664B07F118041D460FCD0FC40FCD0FC479
:1021E0002B682370624B3C1D1D460FCD0FC42B681E
:1021F0001A46228002341B0C23705E4A3B4612684A
:10220000114619800233120C1A70FFF757FF012391
:10221000C7F8C4300123C7F8B8300123C7F8C0306D
:102220003B460321184600F0ADF807F1980314214E
:10223000184600F0A7F807F1AC030321184600F098
:10224000A1F807F154031A21184600F09BF807F192
:10225000AC030321184600F095F822E04648FFF74A
:10226000CEFE0346184600F055FD37A3D3E9002300
:1022700000F0F4FE02460B461046194600F0D6FF69
:102280000346C7F8B0303D4B1B68012B09D13C4BCE
:102290001B68012B02D10023C7F8C430374B002242
:1022A0001A60D7F8C430012BD8D047E03B46032151
:1022B000184600F067F807F170031421184600F083
:1022C00061F827E02C48FFF79AFE0346184600F015
:1022D00021FD1DA3D3E9002300F0C0FE02460B46FA
:1022E0001046194600F0A2FF0346C7F8B030234B52
:1022F0001B68012B0ED1224B1B68012B07D13B46DB
:102300000321184600F03EF80023C7F8C0301B4BED
:1023100000221A60D7F8C030012BD3D0D7F8B430E0
:10232000032B0BD801A252F823F000BF3D2300007D
:102330003D2300003D2300003D230000D7F8B830C6
:10234000012BB3D063E700BFFCA9F1D24D6240403E
:10235000080400000C040000200400002804000011
:102360003404000048040000640400007C04000001
:10237000A0040000B404000008000020A800002011
:102380001000002080B582B000AF786039603A68F4
:10239000002379680748FEF7F1FF00BF0548FFF703
:1023A00069F80346002BF9D100BF00BF0837BD46CE
:1023B00080BD00BF0000002080B483B000AF786013
:1023C0007B681B6800BF0C37BD465DF8047B704717
:1023D00080B400AF00BFBD465DF8047B704780B499
:1023E00000AF00BFBD465DF8047B704780B400AF0E
:1023F00000BFBD465DF8047B704780B483B000AF7A
:10240000786039607B683A68C3F8042300BF0C37F2
:10241000BD465DF8047B704780B483B000AF786040
:1024200039607B68D3F804233B68134018460C37A7
:10243000BD465DF8047B704780B483B000AF786020
:102440000B467B807B887A6813441B68002B14BF83
:1024500001230023DBB218460C37BD465DF8047B30
:10246000704780B582B000AF78600B467B807B8878
:102470007A68134400221A607B887A6813441846ED
:10248000FFF79AFF00BF0837BD4680BD80B483B018
:1024900000AF786039607B683A68C3F8082500BFF0
:1024A0000C37BD465DF8047B704780B483B000AF45
:1024B00078600B46FB70FA787B6813441A46012358
:1024C000136000BF0C37BD465DF8047B704780B4D5
:1024D00083B000AF786039607B683A68C3F84823FE
:1024E00000BF0C37BD465DF8047B704780B483B0F5
:1024F00000AF0346FB71FB799B0003F5A0739BB211
:1025000018460C37BD465DF8047B704780B582B035
:1025100000AF786039603B681B6819467868FFF740
:10252000B5FFFFF755FF00BF0837BD4680BD80B53A
:1025300086B000AFF860B96011461A460B46FB71D1
:102540001346BB714FF48072B968F86800F0D8F890
:102550004FF48272B968F86800F0D2F800237B610A
:102560000DE07B69DBB21846FFF7C0FF03461A4651
:10257000B968F86800F0C4F87B6901337B617B6956
:10258000032BEED9FFF724FFBB79002B03D0B968EA
:10259000F868FFF732FFFFF71BFF00BF1837BD4693
:1025A00080BD80B584B000AF7860396039687868E4
:1025B00000F072F8F860FFF70BFFFB681846103761
:1025C000BD4680BD80B584B000AF78603960FFF74C
:1025D0000DFF39687868FFF71FFFF860FFF7FFFE0F
:1025E000FB6818461037BD4680BD80B582B000AF8D
:1025F00078600B46FB70FB7819467868FFF755FF4B
:10260000FFF7E6FE00BF0837BD4680BD80B582B04B
:1026100000AF7860396039687868FFF758FFFFF7D6
:10262000D7FE00BF0837BD4680BD80B584B000AF7F
:10263000F860B9603B601346FB80FB88A3F58073AC
:102640009B08012202FA03F31A46BB681340002BD1
:102650001DD0FB881946F868FFF7EEFE0346002BF5
:1026600015D0FB881946F868FFF7FBFE3B68002B86
:102670000BD03B681B68FA88A2F580729208012192
:1026800001FA02F21A433B681A60012300E00023BA
:1026900018461037BD4680BD80B584B000AF786065
:1026A00039600023BB60FFF79AFE0023FB600FE058
:1026B000FB68DBB21846FFF719FF03461A4607F11D
:1026C000080339687868FFF7B0FFFB680133FB60E7
:1026D000FB68032BECD907F108034FF480723968CB
:1026E0007868FFF7A2FF07F108034FF48272396898
:1026F0007868FFF79AFFBB6818461037BD4680BD63
:1027000080B584B000AFF860B9601346FB80FB88E9
:10271000A3F580739B08012202FA03F31A46BB68F3
:102720001340002B04D0FB881946F868FFF799FE88
:1027300000BF1037BD4680BD80B586B000AFF860E1
:10274000B9607A60FB685B791946224A7B6842F877
:102750003130FB685B791F4ADB0013441B79002B87
:1027600003D01D4B7B617B6930E0FB681868BB6858
:102770009A7800230021FFF7DAFEBB681B883B61D3
:10278000FB681B6807F1100211461846FFF7BEFEF2
:10279000FB685B791846BB6819790E4AC30013447D
:1027A0000A465A71FB685B791846BB68D978094AB2
:1027B000C30013440A469A71FB685B79054ADB0043
:1027C000134401221A71054B7B617B691846183747
:1027D000BD4680BD140100200500AD0B0000AD0B0F
:1027E00080B582B000AF78607B681B680021184616
:1027F000FFF7FBFE7B685B79044ADB00134402228F
:102800001A7100BF0837BD4680BD00BF140100200B
:1028100080B58AB000AFF860B9607A602E4B3B6239
:10282000396AF868FFF7BDFEF8614FF47021F86867
:10283000FFF7C8FEB86100237B6232E07B6ADBB23F
:102840001846FFF753FE0346FB82FB8AA3F580730D
:102850009B08012202FA03F31A46BB691340002BBE
:102860001CD0FB8AA3F580739B08012202FA03F3B4
:102870001A46FB691340002B10D0FB8AA3F5807326
:102880009B08012202FA03F31946F868FFF7BEFE1F
:10289000BB681B687A6AD2B2104698477B6A0133DC
:1028A0007B627A6A7B689A42C8D3FB6903F00103B2
:1028B000002B03D0BB681B6804209847FB6903F01A
:1028C0000203002B03D0BB681B680520984700BF9C
:1028D0002837BD4680BD00BF03000F0080B500AFA4
:1028E000042202490248FFF793FF80BD1401002033
:1028F000004001500A22002100F08CB808B5064BB8
:10290000044613B10021AFF30080044B1B6803B1F0
:102910009847204600F0BAF800000000540200205A
:10292000242B2DE9F0478646904601D8012B06D18D
:1029300000F082F8162303600020BDE8F0870D4602
:1029400033482A4615F8014B065D16F00806F8D103
:102950002D2C10D12C780126951C33F0100215D1A6
:10296000302C0DD12A7802F0DF02582A08D16C7879
:10297000023510230AE02B2C04BF2C78951CECE7C1
:10298000002BF6D1302C14BF0A23082306F1004C8B
:1029900000220CF1FF3C1046BCFBF3F903FB19CA03
:1029A000A4F13007092F0FD83C46A3421BDD571C6A
:1029B00007D0814514D301D1A24511DB00FB0340B0
:1029C000012215F8014BEBE7A4F14107192F01D8BB
:1029D000373CEAE7A4F16107192F04D8573CE4E734
:1029E0004FF0FF32EDE7531C08D122236046CEF8AA
:1029F0000030B8F1000FA0D0691E06E006B14042D9
:102A0000B8F1000F99D0002AF6D1C8F8001094E769
:102A1000B804000013460A46014602480068FFF762
:102A20007FBF00BF1400002002440346934200D140
:102A3000704703F8011BF9E7014B1868704700BFA6
:102A40001400002070B50D4D00260D4C641BA41021
:102A5000A64209D10B4D00260B4C00F00FFC641B65
:102A6000A410A64205D170BD55F8043B0136984725
:102A7000EEE755F8043B01369847F2E7883200004C
:102A800088320000883200008C320000FEE700BF70
:102A900081F0004102E000BF83F0004330B54FEA0F
:102AA00041044FEA430594EA050F08BF90EA020F7C
:102AB0001FBF54EA000C55EA020C7FEA645C7FEA0F
:102AC000655C00F0E2804FEA5454D4EB5555B8BF32
:102AD0006D420CDD2C4480EA020281EA030382EAA3
:102AE000000083EA010180EA020281EA0303362D35
:102AF00088BF30BD11F0004F4FEA01314FF4801C08
:102B00004CEA113102D0404261EB410113F0004F19
:102B10004FEA03334CEA133302D0524263EB4303D0
:102B200094EA050F00F0A780A4F10104D5F1200E6E
:102B30000DDB02FA0EFC22FA05F2801841F10001C9
:102B400003FA0EF2801843FA05F359410EE0A5F19D
:102B500020050EF1200E012A03FA0EFC28BF4CF0CE
:102B6000020C43FA05F3C01851EBE37101F0004584
:102B700007D54FF0000EDCF1000C7EEB00006EEB91
:102B80000101B1F5801F1BD3B1F5001F0CD349081B
:102B90005FEA30004FEA3C0C04F101044FEA445272
:102BA00012F5800F80F09A80BCF1004F08BF5FEAF9
:102BB000500C50F1000041EB045141EA050130BDD9
:102BC0005FEA4C0C404141EB0101013C28BFB1F5EB
:102BD000801FE9D291F0000F04BF01460020B1FA36
:102BE00081F308BF2033A3F10B03B3F120020CDA09
:102BF0000C3208DD02F1140CC2F10C0201FA0CF0E7
:102C000021FA02F10CE002F11402D8BFC2F1200C4B
:102C100001FA02F120FA0CFCDCBF41EA0C01904001
:102C2000E41AA2BF01EB0451294330BD6FEA04044A
:102C30001F3C1CDA0C340EDC04F11404C4F1200235
:102C400020FA04F001FA02F340EA030021FA04F347
:102C500045EA030130BDC4F10C04C4F1200220FA9E
:102C600002F001FA04F340EA0300294630BD21FADC
:102C700004F0294630BD94F0000F83F4801306BFA2
:102C800081F480110134013D4EE77FEA645C18BF96
:102C90007FEA655C29D094EA050F08BF90EA020F2D
:102CA00005D054EA000C04BF1946104630BD91EA25
:102CB000030F1EBF0021002030BD5FEA545C05D128
:102CC0004000494128BF41F0004130BD14F5800467
:102CD0003CBF01F5801130BD01F0004545F0FE41DB
:102CE00041F470014FF0000030BD7FEA645C1ABF10
:102CF000194610467FEA655C1CBF0B46024650EA47
:102D0000013406BF52EA033591EA030F41F4002172
:102D100030BD00BF90F0000F04BF0021704730B5F8
:102D20004FF4806404F132044FF000054FF00001CD
:102D300050E700BF90F0000F04BF0021704730B58E
:102D40004FF4806404F1320410F0004548BF404263
:102D50004FF000013EE700BF42004FEAE2014FEAB8
:102D600031014FEA02701FBF12F07F4393F07F4F93
:102D700081F06051704732F07F4208BF704793F096
:102D80007F4F04BF41F40021704730B54FF46074A9
:102D900001F0004521F000411CE700BF50EA0102AC
:102DA00008BF704730B54FF000050AE050EA010255
:102DB00008BF704730B511F0004502D5404261EBC5
:102DC00041014FF4806404F132045FEA915C3FF406
:102DD000D8AE4FF003025FEADC0C18BF03325FEAA3
:102DE000DC0C18BF033202EBDC02C2F1200300FA54
:102DF00003FC20FA02F001FA03FE40EA0E0021FA79
:102E000002F11444BDE600BF70B54FF0FF0C4CF466
:102E1000E06C1CEA11541DBF1CEA135594EA0C0F18
:102E200095EA0C0F00F0DEF82C4481EA030621EA53
:102E30004C5123EA4C5350EA013518BF52EA03358E
:102E400041F4801143F4801338D0A0FB02CE4FF040
:102E50000005E1FB02E506F00042E0FB03E54FF070
:102E60000006E1FB03569CF0000F18BF4EF0010E68
:102E7000A4F1FF04B6F5007F64F5407404D25FEA64
:102E80004E0E6D4146EB060642EAC62141EA555117
:102E90004FEAC52040EA5E504FEACE2EB4F1FD0C59
:102EA00088BFBCF5E06F1ED8BEF1004F08BF5FEAD7
:102EB000500E50F1000041EB045170BD06F0004689
:102EC00046EA010140EA020081EA0301B4EB5C0436
:102ED000C2BFD4EB0C0541EA045170BD41F480112E
:102EE0004FF0000E013C00F3AB8014F1360FDEBF53
:102EF000002001F0004170BDC4F10004203C35DA2F
:102F00000C341BDC04F11404C4F1200500FA05F3B1
:102F100020FA04F001FA05F240EA020001F0004252
:102F200021F0004110EBD37021FA04F642EB0601C8
:102F30005EEA430E08BF20EAD37070BDC4F10C04F2
:102F4000C4F1200500FA04F320FA05F001FA04F2B6
:102F500040EA020001F0004110EBD37041F10001A2
:102F60005EEA430E08BF20EAD37070BDC4F12005AD
:102F700000FA05F24EEA020E20FA04F301FA05F215
:102F800043EA020321FA04F001F0004121FA04F2BD
:102F900020EA020000EBD3705EEA430E08BF20EA8D
:102FA000D37070BD94F0000F0FD101F000464000C7
:102FB00041EB010111F4801F08BF013CF7D041EA49
:102FC000060195F0000F18BF704703F0004652004D
:102FD00043EB030313F4801F08BF013DF7D043EA1E
:102FE0000603704794EA0C0F0CEA135518BF95EAD4
:102FF0000C0F0CD050EA410618BF52EA4306D1D15B
:1030000081EA030101F000414FF0000070BD50EA79
:10301000410606BF1046194652EA430619D094EA03
:103020000C0F02D150EA013613D195EA0C0F05D1ED
:1030300052EA03361CBF104619460AD181EA030141
:1030400001F0004141F0FE4141F470014FF00000F9
:1030500070BD41F0FE4141F4780170BD70B54FF094
:10306000FF0C4CF4E06C1CEA11541DBF1CEA135514
:1030700094EA0C0F95EA0C0F00F0A7F8A4EB0504F6
:1030800081EA030E52EA03354FEA013100F08880ED
:103090004FEA03334FF0805545EA131343EA1263B6
:1030A0004FEA022245EA111545EA10654FEA00266B
:1030B0000EF000419D4208BF964244F1FD0404F524
:1030C000407402D25B084FEA3202B61A65EB030580
:1030D0005B084FEA32024FF480104FF4002CB6EB3D
:1030E000020E75EB030E22BFB61A754640EA0C00BD
:1030F0005B084FEA3202B6EB020E75EB030E22BFFD
:10310000B61A754640EA5C005B084FEA3202B6EB3D
:10311000020E75EB030E22BFB61A754640EA9C00FC
:103120005B084FEA3202B6EB020E75EB030E22BFCC
:10313000B61A754640EADC0055EA060E18D04FEA8A
:10314000051545EA16754FEA06164FEAC30343EA2A
:1031500052734FEAC2025FEA1C1CC0D111F4801FF7
:103160000BD141EA00014FF000004FF0004CB6E7F0
:1031700011F4801F04BF01430020B4F1FD0C88BF8F
:10318000BCF5E06F3FF6AFAEB5EB030C04BFB6EB9A
:10319000020C5FEA500C50F1000041EB045170BD8D
:1031A0000EF0004E4EEA113114EB5C04C2BFD4EBBA
:1031B0000C0541EA045170BD41F480114FF0000E3E
:1031C000013C90E645EA060E8DE60CEA135594EABA
:1031D0000C0F08BF95EA0C0F3FF43BAF94EA0C0FBD
:1031E0000AD150EA01347FF434AF95EA0C0F7FF432
:1031F00025AF104619462CE795EA0C0F06D152EA86
:1032000003353FF4FDAE1046194622E750EA410669
:1032100018BF52EA43067FF4C5AE50EA41047FF47A
:103220000DAF52EA43057FF4EBAE12E74FEA4102DD
:1032300012F5001215D211D56FF47873B3EB625208
:1032400012D94FEAC12343F0004343EA505311F02F
:10325000004F23FA02F018BF404270474FF00000C1
:10326000704750EA013005D111F0004008BF6FF0FF
:10327000004070474FF00000704700BFF8B500BF36
:10328000F8BC08BC9E4670472D060000F8B500BF8C
:10329000F8BC08BC9E467047050600001000000000
:1032A00000000000017A5200027C0E011B0C0D0090
:1032B00010000000180000000000000010000000D6
:0832C000000000000000000006
:1032C80010330000000000201900000074330000D3
:1032D8006400002000000000743300006400002037
:1032E80000000000743300006400002000000000AB
:1032F800640000207D00000058020020000000004B
:08330800580200200000000043
:103310000080005000000000004001501400040034
:103320000100000018000020000000001C01002027
:1033300084010020EC0100200000000000000000DB
:10334000000000000000000000000000000000007D
:10335000000000000000000000000000000000006D
:10336000000000000000000000000000000000005D
:043370000000000059
:040000030000187D64
:00000001FF
